{
  "_format": "hh-sol-artifact-1",
  "contractName": "portfolio",
  "sourceName": "contracts/portfolio.sol",
  "abi": [
    {
      "inputs": [
        {
          "internalType": "address",
          "name": "paymentTokenAddress",
          "type": "address"
        }
      ],
      "stateMutability": "nonpayable",
      "type": "constructor"
    },
    {
      "anonymous": false,
      "inputs": [
        {
          "indexed": true,
          "internalType": "address",
          "name": "owner",
          "type": "address"
        },
        {
          "indexed": true,
          "internalType": "address",
          "name": "spender",
          "type": "address"
        },
        {
          "indexed": true,
          "internalType": "uint256",
          "name": "id",
          "type": "uint256"
        }
      ],
      "name": "Approval",
      "type": "event"
    },
    {
      "anonymous": false,
      "inputs": [
        {
          "indexed": true,
          "internalType": "address",
          "name": "owner",
          "type": "address"
        },
        {
          "indexed": true,
          "internalType": "address",
          "name": "operator",
          "type": "address"
        },
        {
          "indexed": false,
          "internalType": "bool",
          "name": "approved",
          "type": "bool"
        }
      ],
      "name": "ApprovalForAll",
      "type": "event"
    },
    {
      "anonymous": false,
      "inputs": [
        {
          "indexed": true,
          "internalType": "address",
          "name": "from",
          "type": "address"
        },
        {
          "indexed": true,
          "internalType": "address",
          "name": "to",
          "type": "address"
        },
        {
          "indexed": true,
          "internalType": "uint256",
          "name": "id",
          "type": "uint256"
        }
      ],
      "name": "Transfer",
      "type": "event"
    },
    {
      "inputs": [
        {
          "internalType": "uint256",
          "name": "",
          "type": "uint256"
        }
      ],
      "name": "_isPortfolioForSale",
      "outputs": [
        {
          "internalType": "bool",
          "name": "",
          "type": "bool"
        }
      ],
      "stateMutability": "view",
      "type": "function"
    },
    {
      "inputs": [
        {
          "internalType": "uint256",
          "name": "",
          "type": "uint256"
        }
      ],
      "name": "_listedPortfolioOwner",
      "outputs": [
        {
          "internalType": "address",
          "name": "",
          "type": "address"
        }
      ],
      "stateMutability": "view",
      "type": "function"
    },
    {
      "inputs": [
        {
          "internalType": "address",
          "name": "",
          "type": "address"
        }
      ],
      "name": "_ownedToken",
      "outputs": [
        {
          "internalType": "uint256",
          "name": "",
          "type": "uint256"
        }
      ],
      "stateMutability": "view",
      "type": "function"
    },
    {
      "inputs": [
        {
          "internalType": "address",
          "name": "",
          "type": "address"
        },
        {
          "internalType": "uint256",
          "name": "",
          "type": "uint256"
        }
      ],
      "name": "_stocksForSale",
      "outputs": [
        {
          "internalType": "address",
          "name": "seller",
          "type": "address"
        },
        {
          "internalType": "uint256",
          "name": "count",
          "type": "uint256"
        }
      ],
      "stateMutability": "view",
      "type": "function"
    },
    {
      "inputs": [
        {
          "internalType": "uint256",
          "name": "",
          "type": "uint256"
        },
        {
          "internalType": "address",
          "name": "",
          "type": "address"
        }
      ],
      "name": "_tokenHasStock",
      "outputs": [
        {
          "internalType": "bool",
          "name": "",
          "type": "bool"
        }
      ],
      "stateMutability": "view",
      "type": "function"
    },
    {
      "inputs": [
        {
          "internalType": "uint256",
          "name": "",
          "type": "uint256"
        },
        {
          "internalType": "uint256",
          "name": "",
          "type": "uint256"
        }
      ],
      "name": "_tokenStockAddresses",
      "outputs": [
        {
          "internalType": "address",
          "name": "",
          "type": "address"
        }
      ],
      "stateMutability": "view",
      "type": "function"
    },
    {
      "inputs": [
        {
          "internalType": "address",
          "name": "",
          "type": "address"
        }
      ],
      "name": "_totalSellCount",
      "outputs": [
        {
          "internalType": "uint256",
          "name": "",
          "type": "uint256"
        }
      ],
      "stateMutability": "view",
      "type": "function"
    },
    {
      "inputs": [
        {
          "internalType": "address",
          "name": "",
          "type": "address"
        },
        {
          "internalType": "address",
          "name": "",
          "type": "address"
        }
      ],
      "name": "_userListedStocks",
      "outputs": [
        {
          "internalType": "uint256",
          "name": "",
          "type": "uint256"
        }
      ],
      "stateMutability": "view",
      "type": "function"
    },
    {
      "inputs": [
        {
          "internalType": "address",
          "name": "spender",
          "type": "address"
        },
        {
          "internalType": "uint256",
          "name": "id",
          "type": "uint256"
        }
      ],
      "name": "approve",
      "outputs": [],
      "stateMutability": "nonpayable",
      "type": "function"
    },
    {
      "inputs": [
        {
          "internalType": "address",
          "name": "owner",
          "type": "address"
        }
      ],
      "name": "balanceOf",
      "outputs": [
        {
          "internalType": "uint256",
          "name": "",
          "type": "uint256"
        }
      ],
      "stateMutability": "view",
      "type": "function"
    },
    {
      "inputs": [
        {
          "internalType": "address",
          "name": "stockFtAddress",
          "type": "address"
        },
        {
          "internalType": "uint256",
          "name": "count",
          "type": "uint256"
        }
      ],
      "name": "buy",
      "outputs": [],
      "stateMutability": "nonpayable",
      "type": "function"
    },
    {
      "inputs": [
        {
          "internalType": "uint256",
          "name": "token_id",
          "type": "uint256"
        }
      ],
      "name": "buyPortfolio",
      "outputs": [],
      "stateMutability": "nonpayable",
      "type": "function"
    },
    {
      "inputs": [
        {
          "internalType": "address",
          "name": "stockFtAddress",
          "type": "address"
        }
      ],
      "name": "getAPrice",
      "outputs": [
        {
          "internalType": "uint256",
          "name": "",
          "type": "uint256"
        }
      ],
      "stateMutability": "pure",
      "type": "function"
    },
    {
      "inputs": [
        {
          "internalType": "uint256",
          "name": "id",
          "type": "uint256"
        }
      ],
      "name": "getApproved",
      "outputs": [
        {
          "internalType": "address",
          "name": "",
          "type": "address"
        }
      ],
      "stateMutability": "view",
      "type": "function"
    },
    {
      "inputs": [
        {
          "internalType": "address",
          "name": "stockFtAddress",
          "type": "address"
        },
        {
          "internalType": "uint256",
          "name": "count",
          "type": "uint256"
        }
      ],
      "name": "getPrice",
      "outputs": [
        {
          "internalType": "uint256",
          "name": "",
          "type": "uint256"
        }
      ],
      "stateMutability": "view",
      "type": "function"
    },
    {
      "inputs": [
        {
          "internalType": "address",
          "name": "stockAddress",
          "type": "address"
        }
      ],
      "name": "getStockListingsLength",
      "outputs": [
        {
          "internalType": "uint256",
          "name": "",
          "type": "uint256"
        }
      ],
      "stateMutability": "view",
      "type": "function"
    },
    {
      "inputs": [
        {
          "internalType": "uint256",
          "name": "tokenId",
          "type": "uint256"
        }
      ],
      "name": "getTokenStockAddresses",
      "outputs": [
        {
          "internalType": "address[]",
          "name": "",
          "type": "address[]"
        }
      ],
      "stateMutability": "view",
      "type": "function"
    },
    {
      "inputs": [
        {
          "internalType": "address",
          "name": "",
          "type": "address"
        },
        {
          "internalType": "address",
          "name": "",
          "type": "address"
        }
      ],
      "name": "isApprovedForAll",
      "outputs": [
        {
          "internalType": "bool",
          "name": "",
          "type": "bool"
        }
      ],
      "stateMutability": "view",
      "type": "function"
    },
    {
      "inputs": [],
      "name": "listPortfolioToSell",
      "outputs": [],
      "stateMutability": "nonpayable",
      "type": "function"
    },
    {
      "inputs": [
        {
          "internalType": "address",
          "name": "stockFtAddress",
          "type": "address"
        },
        {
          "internalType": "uint256",
          "name": "count",
          "type": "uint256"
        }
      ],
      "name": "list_stock_to_sell",
      "outputs": [],
      "stateMutability": "nonpayable",
      "type": "function"
    },
    {
      "inputs": [],
      "name": "mint",
      "outputs": [],
      "stateMutability": "nonpayable",
      "type": "function"
    },
    {
      "inputs": [
        {
          "internalType": "address",
          "name": "from",
          "type": "address"
        },
        {
          "internalType": "address",
          "name": "to",
          "type": "address"
        },
        {
          "internalType": "uint256",
          "name": "id",
          "type": "uint256"
        }
      ],
      "name": "myTransferFrom",
      "outputs": [],
      "stateMutability": "nonpayable",
      "type": "function"
    },
    {
      "inputs": [
        {
          "internalType": "uint256",
          "name": "id",
          "type": "uint256"
        }
      ],
      "name": "ownerOf",
      "outputs": [
        {
          "internalType": "address",
          "name": "owner",
          "type": "address"
        }
      ],
      "stateMutability": "view",
      "type": "function"
    },
    {
      "inputs": [
        {
          "internalType": "address",
          "name": "from",
          "type": "address"
        },
        {
          "internalType": "address",
          "name": "to",
          "type": "address"
        },
        {
          "internalType": "uint256",
          "name": "id",
          "type": "uint256"
        }
      ],
      "name": "safeTransferFrom",
      "outputs": [],
      "stateMutability": "nonpayable",
      "type": "function"
    },
    {
      "inputs": [
        {
          "internalType": "address",
          "name": "from",
          "type": "address"
        },
        {
          "internalType": "address",
          "name": "to",
          "type": "address"
        },
        {
          "internalType": "uint256",
          "name": "id",
          "type": "uint256"
        },
        {
          "internalType": "bytes",
          "name": "data",
          "type": "bytes"
        }
      ],
      "name": "safeTransferFrom",
      "outputs": [],
      "stateMutability": "nonpayable",
      "type": "function"
    },
    {
      "inputs": [
        {
          "internalType": "address",
          "name": "operator",
          "type": "address"
        },
        {
          "internalType": "bool",
          "name": "approved",
          "type": "bool"
        }
      ],
      "name": "setApprovalForAll",
      "outputs": [],
      "stateMutability": "nonpayable",
      "type": "function"
    },
    {
      "inputs": [
        {
          "internalType": "bytes4",
          "name": "interfaceId",
          "type": "bytes4"
        }
      ],
      "name": "supportsInterface",
      "outputs": [
        {
          "internalType": "bool",
          "name": "",
          "type": "bool"
        }
      ],
      "stateMutability": "pure",
      "type": "function"
    },
    {
      "inputs": [],
      "name": "tokenCount",
      "outputs": [
        {
          "internalType": "uint256",
          "name": "",
          "type": "uint256"
        }
      ],
      "stateMutability": "view",
      "type": "function"
    },
    {
      "inputs": [
        {
          "internalType": "address",
          "name": "from",
          "type": "address"
        },
        {
          "internalType": "address",
          "name": "to",
          "type": "address"
        },
        {
          "internalType": "uint256",
          "name": "id",
          "type": "uint256"
        }
      ],
      "name": "transferFrom",
      "outputs": [],
      "stateMutability": "nonpayable",
      "type": "function"
    },
    {
      "inputs": [
        {
          "internalType": "address",
          "name": "stockFtAddress",
          "type": "address"
        }
      ],
      "name": "updatePortfolio",
      "outputs": [
        {
          "internalType": "uint256",
          "name": "",
          "type": "uint256"
        }
      ],
      "stateMutability": "nonpayable",
      "type": "function"
    }
  ],
  "bytecode": "0x608060405234801561001057600080fd5b50604051615550380380615550833981810160405281019061003291906100e4565b600060048190555080600760006101000a81548173ffffffffffffffffffffffffffffffffffffffff021916908373ffffffffffffffffffffffffffffffffffffffff16021790555050610111565b600080fd5b600073ffffffffffffffffffffffffffffffffffffffff82169050919050565b60006100b182610086565b9050919050565b6100c1816100a6565b81146100cc57600080fd5b50565b6000815190506100de816100b8565b92915050565b6000602082840312156100fa576100f9610081565b5b6000610108848285016100cf565b91505092915050565b615430806101206000396000f3fe608060405234801561001057600080fd5b50600436106101da5760003560e01c80636352211e11610104578063a22cb465116100a2578063d24b20f511610071578063d24b20f5146105c2578063d2863e75146105de578063d7305c831461060e578063e985e9c51461063e576101da565b8063a22cb46514610552578063afb21f2f1461056e578063b88d4fde1461058a578063cce7ec13146105a6576101da565b806373bd5bb4116100de57806373bd5bb4146104a357806385ad5085146104d35780639b232ab0146105035780639f181b5e14610534576101da565b80636352211e146104135780636c13e6511461044357806370a0823114610473576101da565b80631249c58b1161017c578063449e815d1161014b578063449e815d14610353578063567241151461038357806356a8c117146103b35780635ba5f510146103e3576101da565b80631249c58b1461030757806312e67db41461031157806323b872dd1461031b57806342842e0e14610337576101da565b8063078a235e116101b8578063078a235e1461025b578063081812fc1461028b578063095ea7b3146102bb5780630dbf53e8146102d7576101da565b8063016e44e7146101df5780630175b22f1461020f57806301ffc9a71461022b575b600080fd5b6101f960048036038101906101f49190613e0b565b61066e565b6040516102069190613e51565b60405180910390f35b61022960048036038101906102249190613e98565b6106ba565b005b61024560048036038101906102409190613f43565b610924565b6040516102529190613f8b565b60405180910390f35b61027560048036038101906102709190613e0b565b6109f6565b6040516102829190613e51565b60405180910390f35b6102a560048036038101906102a09190613fa6565b610d9e565b6040516102b29190613fe2565b60405180910390f35b6102d560048036038101906102d09190613ffd565b610e7b565b005b6102f160048036038101906102ec9190613fa6565b611063565b6040516102fe9190613fe2565b60405180910390f35b61030f611096565b005b61031961127b565b005b61033560048036038101906103309190613e98565b611447565b005b610351600480360381019061034c9190613e98565b611731565b005b61036d60048036038101906103689190613ffd565b611869565b60405161037a9190613e51565b60405180910390f35b61039d60048036038101906103989190613fa6565b6119b8565b6040516103aa9190613f8b565b60405180910390f35b6103cd60048036038101906103c89190613fa6565b6119d8565b6040516103da91906140fb565b60405180910390f35b6103fd60048036038101906103f8919061411d565b611ad2565b60405161040a9190613e51565b60405180910390f35b61042d60048036038101906104289190613fa6565b611af7565b60405161043a9190613fe2565b60405180910390f35b61045d60048036038101906104589190613e0b565b611ba2565b60405161046a9190613e51565b60405180910390f35b61048d60048036038101906104889190613e0b565b611bba565b60405161049a9190613e51565b60405180910390f35b6104bd60048036038101906104b89190613e0b565b611c71565b6040516104ca9190613e51565b60405180910390f35b6104ed60048036038101906104e89190613e0b565b611cf0565b6040516104fa9190613e51565b60405180910390f35b61051d60048036038101906105189190613ffd565b611d08565b60405161052b92919061415d565b60405180910390f35b61053c611d69565b6040516105499190613e51565b60405180910390f35b61056c600480360381019061056791906141b2565b611d6f565b005b61058860048036038101906105839190613fa6565b611e6c565b005b6105a4600480360381019061059f9190614257565b612629565b005b6105c060048036038101906105bb9190613ffd565b612767565b005b6105dc60048036038101906105d79190613ffd565b6130d9565b005b6105f860048036038101906105f391906142df565b613746565b6040516106059190613f8b565b60405180910390f35b6106286004803603810190610623919061431f565b613775565b6040516106359190613fe2565b60405180910390f35b6106586004803603810190610653919061411d565b6137c3565b6040516106659190613f8b565b60405180910390f35b6000600860008373ffffffffffffffffffffffffffffffffffffffff1673ffffffffffffffffffffffffffffffffffffffff168152602001908152602001600020805490509050919050565b60008082815260200190815260200160002060009054906101000a900473ffffffffffffffffffffffffffffffffffffffff1673ffffffffffffffffffffffffffffffffffffffff168373ffffffffffffffffffffffffffffffffffffffff161461075a576040517f08c379a0000000000000000000000000000000000000000000000000000000008152600401610751906143bc565b60405180910390fd5b600073ffffffffffffffffffffffffffffffffffffffff168273ffffffffffffffffffffffffffffffffffffffff16036107c9576040517f08c379a00000000000000000000000000000000000000000000000000000000081526004016107c090614428565b60405180910390fd5b600160008473ffffffffffffffffffffffffffffffffffffffff1673ffffffffffffffffffffffffffffffffffffffff168152602001908152602001600020600081548092919061081990614477565b9190505550600160008373ffffffffffffffffffffffffffffffffffffffff1673ffffffffffffffffffffffffffffffffffffffff168152602001908152602001600020600081548092919061086e906144a0565b91905055508160008083815260200190815260200160002060006101000a81548173ffffffffffffffffffffffffffffffffffffffff021916908373ffffffffffffffffffffffffffffffffffffffff160217905550808273ffffffffffffffffffffffffffffffffffffffff168473ffffffffffffffffffffffffffffffffffffffff167fddf252ad1be2c89b69c2b068fc378daa952ba7f163c4a11628f55a4df523b3ef60405160405180910390a4505050565b60007f80ac58cd000000000000000000000000000000000000000000000000000000007bffffffffffffffffffffffffffffffffffffffffffffffffffffffff1916827bffffffffffffffffffffffffffffffffffffffffffffffffffffffff191614806109ef57507f01ffc9a7000000000000000000000000000000000000000000000000000000007bffffffffffffffffffffffffffffffffffffffffffffffffffffffff1916827bffffffffffffffffffffffffffffffffffffffffffffffffffffffff1916145b9050919050565b6000808273ffffffffffffffffffffffffffffffffffffffff166318160ddd6040518163ffffffff1660e01b8152600401602060405180830381865afa158015610a44573d6000803e3d6000fd5b505050506040513d601f19601f82011682018060405250810190610a6891906144fd565b11610aa8576040517f08c379a0000000000000000000000000000000000000000000000000000000008152600401610a9f90614576565b60405180910390fd5b6000600660003373ffffffffffffffffffffffffffffffffffffffff1673ffffffffffffffffffffffffffffffffffffffff1681526020019081526020016000205490503373ffffffffffffffffffffffffffffffffffffffff1660008083815260200190815260200160002060009054906101000a900473ffffffffffffffffffffffffffffffffffffffff1673ffffffffffffffffffffffffffffffffffffffff1614610b8c576040517f08c379a0000000000000000000000000000000000000000000000000000000008152600401610b8390614608565b60405180910390fd5b60008373ffffffffffffffffffffffffffffffffffffffff166370a08231336040518263ffffffff1660e01b8152600401610bc79190613fe2565b602060405180830381865afa158015610be4573d6000803e3d6000fd5b505050506040513d601f19601f82011682018060405250810190610c0891906144fd565b905060008111610c4d576040517f08c379a0000000000000000000000000000000000000000000000000000000008152600401610c449061469a565b60405180910390fd5b600115156005600084815260200190815260200160002060008673ffffffffffffffffffffffffffffffffffffffff1673ffffffffffffffffffffffffffffffffffffffff16815260200190815260200160002060009054906101000a900460ff16151514610d945760016005600084815260200190815260200160002060008673ffffffffffffffffffffffffffffffffffffffff1673ffffffffffffffffffffffffffffffffffffffff16815260200190815260200160002060006101000a81548160ff021916908315150217905550600c6000838152602001908152602001600020849080600181540180825580915050600190039060005260206000200160009091909190916101000a81548173ffffffffffffffffffffffffffffffffffffffff021916908373ffffffffffffffffffffffffffffffffffffffff1602179055505b8092505050919050565b60008073ffffffffffffffffffffffffffffffffffffffff1660008084815260200190815260200160002060009054906101000a900473ffffffffffffffffffffffffffffffffffffffff1673ffffffffffffffffffffffffffffffffffffffff1603610e40576040517f08c379a0000000000000000000000000000000000000000000000000000000008152600401610e3790614706565b60405180910390fd5b6002600083815260200190815260200160002060009054906101000a900473ffffffffffffffffffffffffffffffffffffffff169050919050565b600080600083815260200190815260200160002060009054906101000a900473ffffffffffffffffffffffffffffffffffffffff1690508073ffffffffffffffffffffffffffffffffffffffff163373ffffffffffffffffffffffffffffffffffffffff161480610f725750600360008273ffffffffffffffffffffffffffffffffffffffff1673ffffffffffffffffffffffffffffffffffffffff16815260200190815260200160002060003373ffffffffffffffffffffffffffffffffffffffff1673ffffffffffffffffffffffffffffffffffffffff16815260200190815260200160002060009054906101000a900460ff165b610fb1576040517f08c379a0000000000000000000000000000000000000000000000000000000008152600401610fa890614772565b60405180910390fd5b826002600084815260200190815260200160002060006101000a81548173ffffffffffffffffffffffffffffffffffffffff021916908373ffffffffffffffffffffffffffffffffffffffff160217905550818373ffffffffffffffffffffffffffffffffffffffff168273ffffffffffffffffffffffffffffffffffffffff167f8c5be1e5ebec7d5bd14f71427d1e84f3dd0314c0f7b2291e5b200ac8c7c3b92560405160405180910390a4505050565b600d6020528060005260406000206000915054906101000a900473ffffffffffffffffffffffffffffffffffffffff1681565b6000600160003373ffffffffffffffffffffffffffffffffffffffff1673ffffffffffffffffffffffffffffffffffffffff1681526020019081526020016000205414611118576040517f08c379a000000000000000000000000000000000000000000000000000000000815260040161110f90614804565b60405180910390fd5b60016004546111279190614824565b600481905550600160003373ffffffffffffffffffffffffffffffffffffffff1673ffffffffffffffffffffffffffffffffffffffff168152602001908152602001600020600081548092919061117d906144a0565b919050555033600080600454815260200190815260200160002060006101000a81548173ffffffffffffffffffffffffffffffffffffffff021916908373ffffffffffffffffffffffffffffffffffffffff160217905550600454600660003373ffffffffffffffffffffffffffffffffffffffff1673ffffffffffffffffffffffffffffffffffffffff168152602001908152602001600020819055506004543373ffffffffffffffffffffffffffffffffffffffff16600073ffffffffffffffffffffffffffffffffffffffff167fddf252ad1be2c89b69c2b068fc378daa952ba7f163c4a11628f55a4df523b3ef60405160405180910390a4565b6000600660003373ffffffffffffffffffffffffffffffffffffffff1673ffffffffffffffffffffffffffffffffffffffff1681526020019081526020016000205490503373ffffffffffffffffffffffffffffffffffffffff1660008083815260200190815260200160002060009054906101000a900473ffffffffffffffffffffffffffffffffffffffff1673ffffffffffffffffffffffffffffffffffffffff161461135f576040517f08c379a000000000000000000000000000000000000000000000000000000000815260040161135690614608565b60405180910390fd5b60001515600b600083815260200190815260200160002060009054906101000a900460ff161515146113c6576040517f08c379a00000000000000000000000000000000000000000000000000000000081526004016113bd906148ca565b60405180910390fd5b6001600b600083815260200190815260200160002060006101000a81548160ff02191690831515021790555033600d600083815260200190815260200160002060006101000a81548173ffffffffffffffffffffffffffffffffffffffff021916908373ffffffffffffffffffffffffffffffffffffffff16021790555050565b60008082815260200190815260200160002060009054906101000a900473ffffffffffffffffffffffffffffffffffffffff1673ffffffffffffffffffffffffffffffffffffffff168373ffffffffffffffffffffffffffffffffffffffff16146114e7576040517f08c379a00000000000000000000000000000000000000000000000000000000081526004016114de906143bc565b60405180910390fd5b600073ffffffffffffffffffffffffffffffffffffffff168273ffffffffffffffffffffffffffffffffffffffff1603611556576040517f08c379a000000000000000000000000000000000000000000000000000000000815260040161154d90614428565b60405180910390fd5b6115618333836137f2565b6115a0576040517f08c379a000000000000000000000000000000000000000000000000000000000815260040161159790614772565b60405180910390fd5b600160008473ffffffffffffffffffffffffffffffffffffffff1673ffffffffffffffffffffffffffffffffffffffff16815260200190815260200160002060008154809291906115f090614477565b9190505550600160008373ffffffffffffffffffffffffffffffffffffffff1673ffffffffffffffffffffffffffffffffffffffff1681526020019081526020016000206000815480929190611645906144a0565b91905055508160008083815260200190815260200160002060006101000a81548173ffffffffffffffffffffffffffffffffffffffff021916908373ffffffffffffffffffffffffffffffffffffffff1602179055506002600082815260200190815260200160002060006101000a81549073ffffffffffffffffffffffffffffffffffffffff0219169055808273ffffffffffffffffffffffffffffffffffffffff168473ffffffffffffffffffffffffffffffffffffffff167fddf252ad1be2c89b69c2b068fc378daa952ba7f163c4a11628f55a4df523b3ef60405160405180910390a4505050565b61173c838383611447565b60008273ffffffffffffffffffffffffffffffffffffffff163b1480611825575063150b7a0260e01b7bffffffffffffffffffffffffffffffffffffffffffffffffffffffff19168273ffffffffffffffffffffffffffffffffffffffff1663150b7a023386856040518463ffffffff1660e01b81526004016117c193929190614921565b6020604051808303816000875af11580156117e0573d6000803e3d6000fd5b505050506040513d601f19601f820116820180604052508101906118049190614980565b7bffffffffffffffffffffffffffffffffffffffffffffffffffffffff1916145b611864576040517f08c379a000000000000000000000000000000000000000000000000000000000815260040161185b906149f9565b60405180910390fd5b505050565b6000808373ffffffffffffffffffffffffffffffffffffffff166318160ddd6040518163ffffffff1660e01b8152600401602060405180830381865afa1580156118b7573d6000803e3d6000fd5b505050506040513d601f19601f820116820180604052508101906118db91906144fd565b1161191b576040517f08c379a000000000000000000000000000000000000000000000000000000000815260040161191290614576565b60405180910390fd5b81600960008573ffffffffffffffffffffffffffffffffffffffff1673ffffffffffffffffffffffffffffffffffffffff16815260200190815260200160002054101561199d576040517f08c379a000000000000000000000000000000000000000000000000000000000815260040161199490614a8b565b60405180910390fd5b60006064905082816119af9190614aab565b91505092915050565b600b6020528060005260406000206000915054906101000a900460ff1681565b60606000600c60008481526020019081526020016000208054905011611a33576040517f08c379a0000000000000000000000000000000000000000000000000000000008152600401611a2a90614b5f565b60405180910390fd5b600c6000838152602001908152602001600020805480602002602001604051908101604052809291908181526020018280548015611ac657602002820191906000526020600020905b8160009054906101000a900473ffffffffffffffffffffffffffffffffffffffff1673ffffffffffffffffffffffffffffffffffffffff1681526020019060010190808311611a7c575b50505050509050919050565b600a602052816000526040600020602052806000526040600020600091509150505481565b600080600083815260200190815260200160002060009054906101000a900473ffffffffffffffffffffffffffffffffffffffff169050600073ffffffffffffffffffffffffffffffffffffffff168173ffffffffffffffffffffffffffffffffffffffff1603611b9d576040517f08c379a0000000000000000000000000000000000000000000000000000000008152600401611b9490614706565b60405180910390fd5b919050565b60096020528060005260406000206000915090505481565b60008073ffffffffffffffffffffffffffffffffffffffff168273ffffffffffffffffffffffffffffffffffffffff1603611c2a576040517f08c379a0000000000000000000000000000000000000000000000000000000008152600401611c2190614bcb565b60405180910390fd5b600160008373ffffffffffffffffffffffffffffffffffffffff1673ffffffffffffffffffffffffffffffffffffffff168152602001908152602001600020549050919050565b60008073ffffffffffffffffffffffffffffffffffffffff168273ffffffffffffffffffffffffffffffffffffffff1603611ce1576040517f08c379a0000000000000000000000000000000000000000000000000000000008152600401611cd890614c37565b60405180910390fd5b60006064905080915050919050565b60066020528060005260406000206000915090505481565b60086020528160005260406000208181548110611d2457600080fd5b9060005260206000209060020201600091509150508060000160009054906101000a900473ffffffffffffffffffffffffffffffffffffffff16908060010154905082565b60045481565b80600360003373ffffffffffffffffffffffffffffffffffffffff1673ffffffffffffffffffffffffffffffffffffffff16815260200190815260200160002060008473ffffffffffffffffffffffffffffffffffffffff1673ffffffffffffffffffffffffffffffffffffffff16815260200190815260200160002060006101000a81548160ff0219169083151502179055508173ffffffffffffffffffffffffffffffffffffffff163373ffffffffffffffffffffffffffffffffffffffff167f17307eab39ab6107e8899845ad3d59bd9653f200f220920489ca2b5937696c3183604051611e609190613f8b565b60405180910390a35050565b600b600082815260200190815260200160002060009054906101000a900460ff16611ecc576040517f08c379a0000000000000000000000000000000000000000000000000000000008152600401611ec390614cc9565b60405180910390fd5b6000600d600083815260200190815260200160002060009054906101000a900473ffffffffffffffffffffffffffffffffffffffff169050600073ffffffffffffffffffffffffffffffffffffffff168173ffffffffffffffffffffffffffffffffffffffff1603611f73576040517f08c379a0000000000000000000000000000000000000000000000000000000008152600401611f6a90614d35565b60405180910390fd5b3373ffffffffffffffffffffffffffffffffffffffff168173ffffffffffffffffffffffffffffffffffffffff1603611fe1576040517f08c379a0000000000000000000000000000000000000000000000000000000008152600401611fd890614dc7565b60405180910390fd5b6000805b600c60008581526020019081526020016000208054905081101561216f576000600c6000868152602001908152602001600020828154811061202a57612029614de7565b5b9060005260206000200160009054906101000a900473ffffffffffffffffffffffffffffffffffffffff1690506005600086815260200190815260200160002060008273ffffffffffffffffffffffffffffffffffffffff1673ffffffffffffffffffffffffffffffffffffffff16815260200190815260200160002060009054906101000a900460ff16156121615760008173ffffffffffffffffffffffffffffffffffffffff166370a08231866040518263ffffffff1660e01b81526004016120f59190613fe2565b602060405180830381865afa158015612112573d6000803e3d6000fd5b505050506040513d601f19601f8201168201806040525081019061213691906144fd565b9050600061214383611c71565b905081816121519190614aab565b8561215c9190614824565b945050505b508080600101915050611fe5565b506000600760009054906101000a900473ffffffffffffffffffffffffffffffffffffffff1673ffffffffffffffffffffffffffffffffffffffff1663dd62ed3e33306040518363ffffffff1660e01b81526004016121cf929190614e16565b602060405180830381865afa1580156121ec573d6000803e3d6000fd5b505050506040513d601f19601f8201168201806040525081019061221091906144fd565b905081811015612255576040517f08c379a000000000000000000000000000000000000000000000000000000000815260040161224c90614e8b565b60405180910390fd5b60005b600c600086815260200190815260200160002080549050811015612446576000600c6000878152602001908152602001600020828154811061229d5761229c614de7565b5b9060005260206000200160009054906101000a900473ffffffffffffffffffffffffffffffffffffffff1690506005600087815260200190815260200160002060008273ffffffffffffffffffffffffffffffffffffffff1673ffffffffffffffffffffffffffffffffffffffff16815260200190815260200160002060009054906101000a900460ff16156124385760008173ffffffffffffffffffffffffffffffffffffffff166370a08231876040518263ffffffff1660e01b81526004016123689190613fe2565b602060405180830381865afa158015612385573d6000803e3d6000fd5b505050506040513d601f19601f820116820180604052508101906123a991906144fd565b90506000811115612436578173ffffffffffffffffffffffffffffffffffffffff166323b872dd8733846040518463ffffffff1660e01b81526004016123f193929190614eab565b6020604051808303816000875af1158015612410573d6000803e3d6000fd5b505050506040513d601f19601f820116820180604052508101906124349190614ef7565b505b505b508080600101915050612258565b506124528333866106ba565b83600660003373ffffffffffffffffffffffffffffffffffffffff1673ffffffffffffffffffffffffffffffffffffffff168152602001908152602001600020819055506000600660008573ffffffffffffffffffffffffffffffffffffffff1673ffffffffffffffffffffffffffffffffffffffff16815260200190815260200160002081905550600660008473ffffffffffffffffffffffffffffffffffffffff1673ffffffffffffffffffffffffffffffffffffffff168152602001908152602001600020600090556000600b600086815260200190815260200160002060006101000a81548160ff021916908315150217905550600d600085815260200190815260200160002060006101000a81549073ffffffffffffffffffffffffffffffffffffffff0219169055600760009054906101000a900473ffffffffffffffffffffffffffffffffffffffff1673ffffffffffffffffffffffffffffffffffffffff166323b872dd3385856040518463ffffffff1660e01b81526004016125df93929190614eab565b6020604051808303816000875af11580156125fe573d6000803e3d6000fd5b505050506040513d601f19601f820116820180604052508101906126229190614ef7565b5050505050565b612634858585611447565b60008473ffffffffffffffffffffffffffffffffffffffff163b1480612721575063150b7a0260e01b7bffffffffffffffffffffffffffffffffffffffffffffffffffffffff19168473ffffffffffffffffffffffffffffffffffffffff1663150b7a0233888787876040518663ffffffff1660e01b81526004016126bd959493929190614f71565b6020604051808303816000875af11580156126dc573d6000803e3d6000fd5b505050506040513d601f19601f820116820180604052508101906127009190614980565b7bffffffffffffffffffffffffffffffffffffffffffffffffffffffff1916145b612760576040517f08c379a0000000000000000000000000000000000000000000000000000000008152600401612757906149f9565b60405180910390fd5b5050505050565b60008273ffffffffffffffffffffffffffffffffffffffff166318160ddd6040518163ffffffff1660e01b8152600401602060405180830381865afa1580156127b4573d6000803e3d6000fd5b505050506040513d601f19601f820116820180604052508101906127d891906144fd565b11612818576040517f08c379a000000000000000000000000000000000000000000000000000000000815260040161280f90614576565b60405180910390fd5b80600960008473ffffffffffffffffffffffffffffffffffffffff1673ffffffffffffffffffffffffffffffffffffffff16815260200190815260200160002054101561289a576040517f08c379a000000000000000000000000000000000000000000000000000000000815260040161289190615031565b60405180910390fd5b6000600660003373ffffffffffffffffffffffffffffffffffffffff1673ffffffffffffffffffffffffffffffffffffffff1681526020019081526020016000205490503373ffffffffffffffffffffffffffffffffffffffff1660008083815260200190815260200160002060009054906101000a900473ffffffffffffffffffffffffffffffffffffffff1673ffffffffffffffffffffffffffffffffffffffff161461297e576040517f08c379a0000000000000000000000000000000000000000000000000000000008152600401612975906150c3565b60405180910390fd5b600061298a8484611869565b90506000600760009054906101000a900473ffffffffffffffffffffffffffffffffffffffff1673ffffffffffffffffffffffffffffffffffffffff1663dd62ed3e33306040518363ffffffff1660e01b81526004016129eb929190614e16565b602060405180830381865afa158015612a08573d6000803e3d6000fd5b505050506040513d601f19601f82011682018060405250810190612a2c91906144fd565b905081811015612a71576040517f08c379a0000000000000000000000000000000000000000000000000000000008152600401612a6890614e8b565b60405180910390fd5b600084905060005b600860008873ffffffffffffffffffffffffffffffffffffffff1673ffffffffffffffffffffffffffffffffffffffff1681526020019081526020016000208054905081108015612aca5750600082115b156130c6576000600860008973ffffffffffffffffffffffffffffffffffffffff1673ffffffffffffffffffffffffffffffffffffffff1681526020019081526020016000208281548110612b2257612b21614de7565b5b9060005260206000209060020201905080600101548310612e005760008160010154612b4d8a611c71565b612b579190614aab565b90508873ffffffffffffffffffffffffffffffffffffffff166323b872dd8360000160009054906101000a900473ffffffffffffffffffffffffffffffffffffffff163385600101546040518463ffffffff1660e01b8152600401612bbe93929190614eab565b6020604051808303816000875af1158015612bdd573d6000803e3d6000fd5b505050506040513d601f19601f82011682018060405250810190612c019190614ef7565b50600760009054906101000a900473ffffffffffffffffffffffffffffffffffffffff1673ffffffffffffffffffffffffffffffffffffffff166323b872dd338460000160009054906101000a900473ffffffffffffffffffffffffffffffffffffffff16846040518463ffffffff1660e01b8152600401612c8593929190614eab565b6020604051808303816000875af1158015612ca4573d6000803e3d6000fd5b505050506040513d601f19601f82011682018060405250810190612cc89190614ef7565b50816001015484612cd991906150e3565b93508160010154600960008b73ffffffffffffffffffffffffffffffffffffffff1673ffffffffffffffffffffffffffffffffffffffff1681526020019081526020016000206000828254612d2e91906150e3565b925050819055508160010154600a60008460000160009054906101000a900473ffffffffffffffffffffffffffffffffffffffff1673ffffffffffffffffffffffffffffffffffffffff1673ffffffffffffffffffffffffffffffffffffffff16815260200190815260200160002060008b73ffffffffffffffffffffffffffffffffffffffff1673ffffffffffffffffffffffffffffffffffffffff1681526020019081526020016000206000828254612de991906150e3565b92505081905550612dfa8984613926565b506130c0565b600083612e0c8a611c71565b612e169190614aab565b90508873ffffffffffffffffffffffffffffffffffffffff166323b872dd8360000160009054906101000a900473ffffffffffffffffffffffffffffffffffffffff1633876040518463ffffffff1660e01b8152600401612e7993929190614eab565b6020604051808303816000875af1158015612e98573d6000803e3d6000fd5b505050506040513d601f19601f82011682018060405250810190612ebc9190614ef7565b50600760009054906101000a900473ffffffffffffffffffffffffffffffffffffffff1673ffffffffffffffffffffffffffffffffffffffff166323b872dd338460000160009054906101000a900473ffffffffffffffffffffffffffffffffffffffff16846040518463ffffffff1660e01b8152600401612f4093929190614eab565b6020604051808303816000875af1158015612f5f573d6000803e3d6000fd5b505050506040513d601f19601f82011682018060405250810190612f839190614ef7565b5083826001016000828254612f9891906150e3565b9250508190555083600960008b73ffffffffffffffffffffffffffffffffffffffff1673ffffffffffffffffffffffffffffffffffffffff1681526020019081526020016000206000828254612fee91906150e3565b9250508190555083600a60008460000160009054906101000a900473ffffffffffffffffffffffffffffffffffffffff1673ffffffffffffffffffffffffffffffffffffffff1673ffffffffffffffffffffffffffffffffffffffff16815260200190815260200160002060008b73ffffffffffffffffffffffffffffffffffffffff1673ffffffffffffffffffffffffffffffffffffffff16815260200190815260200160002060008282546130a591906150e3565b925050819055506000935082806130bb906144a0565b935050505b50612a79565b6130cf876109f6565b5050505050505050565b6000600660003373ffffffffffffffffffffffffffffffffffffffff1673ffffffffffffffffffffffffffffffffffffffff168152602001908152602001600020549050613126836109f6565b5060008373ffffffffffffffffffffffffffffffffffffffff166318160ddd6040518163ffffffff1660e01b8152600401602060405180830381865afa158015613174573d6000803e3d6000fd5b505050506040513d601f19601f8201168201806040525081019061319891906144fd565b116131d8576040517f08c379a00000000000000000000000000000000000000000000000000000000081526004016131cf90614576565b60405180910390fd5b3373ffffffffffffffffffffffffffffffffffffffff1660008083815260200190815260200160002060009054906101000a900473ffffffffffffffffffffffffffffffffffffffff1673ffffffffffffffffffffffffffffffffffffffff1614613278576040517f08c379a000000000000000000000000000000000000000000000000000000000815260040161326f90614608565b60405180910390fd5b600115156005600083815260200190815260200160002060008573ffffffffffffffffffffffffffffffffffffffff1673ffffffffffffffffffffffffffffffffffffffff16815260200190815260200160002060009054906101000a900460ff1615151461331c576040517f08c379a000000000000000000000000000000000000000000000000000000000815260040161331390615189565b60405180910390fd5b60008373ffffffffffffffffffffffffffffffffffffffff166370a08231336040518263ffffffff1660e01b81526004016133579190613fe2565b602060405180830381865afa158015613374573d6000803e3d6000fd5b505050506040513d601f19601f8201168201806040525081019061339891906144fd565b9050808311156133dd576040517f08c379a00000000000000000000000000000000000000000000000000000000081526004016133d49061521b565b60405180910390fd5b6000600a60003373ffffffffffffffffffffffffffffffffffffffff1673ffffffffffffffffffffffffffffffffffffffff16815260200190815260200160002060008673ffffffffffffffffffffffffffffffffffffffff1673ffffffffffffffffffffffffffffffffffffffff16815260200190815260200160002054905081848261346b9190614824565b11156134ac576040517f08c379a00000000000000000000000000000000000000000000000000000000081526004016134a3906152ad565b60405180910390fd5b60008573ffffffffffffffffffffffffffffffffffffffff1663dd62ed3e33306040518363ffffffff1660e01b81526004016134e9929190614e16565b602060405180830381865afa158015613506573d6000803e3d6000fd5b505050506040513d601f19601f8201168201806040525081019061352a91906144fd565b90508481101561356f576040517f08c379a00000000000000000000000000000000000000000000000000000000081526004016135669061533f565b60405180910390fd5b600860008773ffffffffffffffffffffffffffffffffffffffff1673ffffffffffffffffffffffffffffffffffffffff16815260200190815260200160002060405180604001604052803373ffffffffffffffffffffffffffffffffffffffff16815260200187815250908060018154018082558091505060019003906000526020600020906002020160009091909190915060008201518160000160006101000a81548173ffffffffffffffffffffffffffffffffffffffff021916908373ffffffffffffffffffffffffffffffffffffffff16021790555060208201518160010155505084600960008873ffffffffffffffffffffffffffffffffffffffff1673ffffffffffffffffffffffffffffffffffffffff16815260200190815260200160002060008282546136a49190614824565b9250508190555084600a60003373ffffffffffffffffffffffffffffffffffffffff1673ffffffffffffffffffffffffffffffffffffffff16815260200190815260200160002060008873ffffffffffffffffffffffffffffffffffffffff1673ffffffffffffffffffffffffffffffffffffffff16815260200190815260200160002060008282546137379190614824565b92505081905550505050505050565b60056020528160005260406000206020528060005260406000206000915091509054906101000a900460ff1681565b600c602052816000526040600020818154811061379157600080fd5b906000526020600020016000915091509054906101000a900473ffffffffffffffffffffffffffffffffffffffff1681565b60036020528160005260406000206020528060005260406000206000915091509054906101000a900460ff1681565b60008373ffffffffffffffffffffffffffffffffffffffff168373ffffffffffffffffffffffffffffffffffffffff1614806138b45750600360008573ffffffffffffffffffffffffffffffffffffffff1673ffffffffffffffffffffffffffffffffffffffff16815260200190815260200160002060008473ffffffffffffffffffffffffffffffffffffffff1673ffffffffffffffffffffffffffffffffffffffff16815260200190815260200160002060009054906101000a900460ff165b8061391d57506002600083815260200190815260200160002060009054906101000a900473ffffffffffffffffffffffffffffffffffffffff1673ffffffffffffffffffffffffffffffffffffffff168373ffffffffffffffffffffffffffffffffffffffff16145b90509392505050565b600860008373ffffffffffffffffffffffffffffffffffffffff1673ffffffffffffffffffffffffffffffffffffffff1681526020019081526020016000208054905081106139aa576040517f08c379a00000000000000000000000000000000000000000000000000000000081526004016139a1906153ab565b60405180910390fd5b6000600860008473ffffffffffffffffffffffffffffffffffffffff1673ffffffffffffffffffffffffffffffffffffffff16815260200190815260200160002082815481106139fd576139fc614de7565b5b906000526020600020906002020160000160009054906101000a900473ffffffffffffffffffffffffffffffffffffffff1690506000600a60008373ffffffffffffffffffffffffffffffffffffffff1673ffffffffffffffffffffffffffffffffffffffff16815260200190815260200160002060008573ffffffffffffffffffffffffffffffffffffffff1673ffffffffffffffffffffffffffffffffffffffff1681526020019081526020016000205403613b3657600a60008273ffffffffffffffffffffffffffffffffffffffff1673ffffffffffffffffffffffffffffffffffffffff16815260200190815260200160002060008473ffffffffffffffffffffffffffffffffffffffff1673ffffffffffffffffffffffffffffffffffffffff168152602001908152602001600020600090555b6000600860008573ffffffffffffffffffffffffffffffffffffffff1673ffffffffffffffffffffffffffffffffffffffff1681526020019081526020016000206001600860008773ffffffffffffffffffffffffffffffffffffffff1673ffffffffffffffffffffffffffffffffffffffff16815260200190815260200160002080549050613bc691906150e3565b81548110613bd757613bd6614de7565b5b90600052602060002090600202016040518060400160405290816000820160009054906101000a900473ffffffffffffffffffffffffffffffffffffffff1673ffffffffffffffffffffffffffffffffffffffff1673ffffffffffffffffffffffffffffffffffffffff168152602001600182015481525050905080600860008673ffffffffffffffffffffffffffffffffffffffff1673ffffffffffffffffffffffffffffffffffffffff1681526020019081526020016000208481548110613ca457613ca3614de7565b5b906000526020600020906002020160008201518160000160006101000a81548173ffffffffffffffffffffffffffffffffffffffff021916908373ffffffffffffffffffffffffffffffffffffffff16021790555060208201518160010155905050600860008573ffffffffffffffffffffffffffffffffffffffff1673ffffffffffffffffffffffffffffffffffffffff168152602001908152602001600020805480613d5557613d546153cb565b5b6001900381819060005260206000209060020201600080820160006101000a81549073ffffffffffffffffffffffffffffffffffffffff021916905560018201600090555050905550505050565b600080fd5b600080fd5b600073ffffffffffffffffffffffffffffffffffffffff82169050919050565b6000613dd882613dad565b9050919050565b613de881613dcd565b8114613df357600080fd5b50565b600081359050613e0581613ddf565b92915050565b600060208284031215613e2157613e20613da3565b5b6000613e2f84828501613df6565b91505092915050565b6000819050919050565b613e4b81613e38565b82525050565b6000602082019050613e666000830184613e42565b92915050565b613e7581613e38565b8114613e8057600080fd5b50565b600081359050613e9281613e6c565b92915050565b600080600060608486031215613eb157613eb0613da3565b5b6000613ebf86828701613df6565b9350506020613ed086828701613df6565b9250506040613ee186828701613e83565b9150509250925092565b60007fffffffff0000000000000000000000000000000000000000000000000000000082169050919050565b613f2081613eeb565b8114613f2b57600080fd5b50565b600081359050613f3d81613f17565b92915050565b600060208284031215613f5957613f58613da3565b5b6000613f6784828501613f2e565b91505092915050565b60008115159050919050565b613f8581613f70565b82525050565b6000602082019050613fa06000830184613f7c565b92915050565b600060208284031215613fbc57613fbb613da3565b5b6000613fca84828501613e83565b91505092915050565b613fdc81613dcd565b82525050565b6000602082019050613ff76000830184613fd3565b92915050565b6000806040838503121561401457614013613da3565b5b600061402285828601613df6565b925050602061403385828601613e83565b9150509250929050565b600081519050919050565b600082825260208201905092915050565b6000819050602082019050919050565b61407281613dcd565b82525050565b60006140848383614069565b60208301905092915050565b6000602082019050919050565b60006140a88261403d565b6140b28185614048565b93506140bd83614059565b8060005b838110156140ee5781516140d58882614078565b97506140e083614090565b9250506001810190506140c1565b5085935050505092915050565b60006020820190508181036000830152614115818461409d565b905092915050565b6000806040838503121561413457614133613da3565b5b600061414285828601613df6565b925050602061415385828601613df6565b9150509250929050565b60006040820190506141726000830185613fd3565b61417f6020830184613e42565b9392505050565b61418f81613f70565b811461419a57600080fd5b50565b6000813590506141ac81614186565b92915050565b600080604083850312156141c9576141c8613da3565b5b60006141d785828601613df6565b92505060206141e88582860161419d565b9150509250929050565b600080fd5b600080fd5b600080fd5b60008083601f840112614217576142166141f2565b5b8235905067ffffffffffffffff811115614234576142336141f7565b5b6020830191508360018202830111156142505761424f6141fc565b5b9250929050565b60008060008060006080868803121561427357614272613da3565b5b600061428188828901613df6565b955050602061429288828901613df6565b94505060406142a388828901613e83565b935050606086013567ffffffffffffffff8111156142c4576142c3613da8565b5b6142d088828901614201565b92509250509295509295909350565b600080604083850312156142f6576142f5613da3565b5b600061430485828601613e83565b925050602061431585828601613df6565b9150509250929050565b6000806040838503121561433657614335613da3565b5b600061434485828601613e83565b925050602061435585828601613e83565b9150509250929050565b600082825260208201905092915050565b7f66726f6d20213d206f776e657200000000000000000000000000000000000000600082015250565b60006143a6600d8361435f565b91506143b182614370565b602082019050919050565b600060208201905081810360008301526143d581614399565b9050919050565b7f7472616e7366657220746f207a65726f20616464726573730000000000000000600082015250565b600061441260188361435f565b915061441d826143dc565b602082019050919050565b6000602082019050818103600083015261444181614405565b9050919050565b7f4e487b7100000000000000000000000000000000000000000000000000000000600052601160045260246000fd5b600061448282613e38565b91506000820361449557614494614448565b5b600182039050919050565b60006144ab82613e38565b91507fffffffffffffffffffffffffffffffffffffffffffffffffffffffffffffffff82036144dd576144dc614448565b5b600182019050919050565b6000815190506144f781613e6c565b92915050565b60006020828403121561451357614512613da3565b5b6000614521848285016144e8565b91505092915050565b7f496e76616c6964204552432d323020636f6e7472616374000000000000000000600082015250565b600061456060178361435f565b915061456b8261452a565b602082019050919050565b6000602082019050818103600083015261458f81614553565b9050919050565b7f796f7520617265206e6f7420746865206f776e6572206f66207468697320706f60008201527f7274666f6c696f21000000000000000000000000000000000000000000000000602082015250565b60006145f260288361435f565b91506145fd82614596565b604082019050919050565b60006020820190508181036000830152614621816145e5565b9050919050565b7f796f7520646f6e74206f776e20616e792073746f636b20696e2074686973206360008201527f6f6d70616e792021210000000000000000000000000000000000000000000000602082015250565b600061468460298361435f565b915061468f82614628565b604082019050919050565b600060208201905081810360008301526146b381614677565b9050919050565b7f746f6b656e20646f65736e277420657869737400000000000000000000000000600082015250565b60006146f060138361435f565b91506146fb826146ba565b602082019050919050565b6000602082019050818103600083015261471f816146e3565b9050919050565b7f6e6f7420617574686f72697a6564000000000000000000000000000000000000600082015250565b600061475c600e8361435f565b915061476782614726565b602082019050919050565b6000602082019050818103600083015261478b8161474f565b9050919050565b7f796f75206861766520616c726561647920616c7265616479206d696e7465642060008201527f796f757220706f7274666f6c696f202100000000000000000000000000000000602082015250565b60006147ee60308361435f565b91506147f982614792565b604082019050919050565b6000602082019050818103600083015261481d816147e1565b9050919050565b600061482f82613e38565b915061483a83613e38565b925082820190508082111561485257614851614448565b5b92915050565b7f796f757220706f7274666f6c696f2068617320616c7265616479206265656e2060008201527f6c697374656420666f722073616c650000000000000000000000000000000000602082015250565b60006148b4602f8361435f565b91506148bf82614858565b604082019050919050565b600060208201905081810360008301526148e3816148a7565b9050919050565b600082825260208201905092915050565b50565b600061490b6000836148ea565b9150614916826148fb565b600082019050919050565b60006080820190506149366000830186613fd3565b6149436020830185613fd3565b6149506040830184613e42565b8181036060830152614961816148fe565b9050949350505050565b60008151905061497a81613f17565b92915050565b60006020828403121561499657614995613da3565b5b60006149a48482850161496b565b91505092915050565b7f756e7361666520726563697069656e7400000000000000000000000000000000600082015250565b60006149e360108361435f565b91506149ee826149ad565b602082019050919050565b60006020820190508181036000830152614a12816149d6565b9050919050565b7f736f727279202c206e6f7420656e6f7567682073746f636b206861732062656560008201527f6e206c697374656420757020666f722073616c65000000000000000000000000602082015250565b6000614a7560348361435f565b9150614a8082614a19565b604082019050919050565b60006020820190508181036000830152614aa481614a68565b9050919050565b6000614ab682613e38565b9150614ac183613e38565b9250828202614acf81613e38565b91508282048414831517614ae657614ae5614448565b5b5092915050565b7f4e6f2073746f636b7320666f756e6420666f72207468697320746f6b656e204960008201527f4400000000000000000000000000000000000000000000000000000000000000602082015250565b6000614b4960218361435f565b9150614b5482614aed565b604082019050919050565b60006020820190508181036000830152614b7881614b3c565b9050919050565b7f6f776e6572203d207a65726f2061646472657373000000000000000000000000600082015250565b6000614bb560148361435f565b9150614bc082614b7f565b602082019050919050565b60006020820190508181036000830152614be481614ba8565b9050919050565b7f796f752073656e74207a65726f20616464726573732100000000000000000000600082015250565b6000614c2160168361435f565b9150614c2c82614beb565b602082019050919050565b60006020820190508181036000830152614c5081614c14565b9050919050565b7f74686520706f7274666f6c696f206861736e2774206265656e206c697374656460008201527f20666f722073616c652079657400000000000000000000000000000000000000602082015250565b6000614cb3602d8361435f565b9150614cbe82614c57565b604082019050919050565b60006020820190508181036000830152614ce281614ca6565b9050919050565b7f496e76616c696420706f7274666f6c696f206f776e6572000000000000000000600082015250565b6000614d1f60178361435f565b9150614d2a82614ce9565b602082019050919050565b60006020820190508181036000830152614d4e81614d12565b9050919050565b7f596f752063616e6e6f742062757920796f7572206f776e20706f7274666f6c6960008201527f6f00000000000000000000000000000000000000000000000000000000000000602082015250565b6000614db160218361435f565b9150614dbc82614d55565b604082019050919050565b60006020820190508181036000830152614de081614da4565b9050919050565b7f4e487b7100000000000000000000000000000000000000000000000000000000600052603260045260246000fd5b6000604082019050614e2b6000830185613fd3565b614e386020830184613fd3565b9392505050565b7f496e73756666696369656e7420617574686f72697a6174696f6e000000000000600082015250565b6000614e75601a8361435f565b9150614e8082614e3f565b602082019050919050565b60006020820190508181036000830152614ea481614e68565b9050919050565b6000606082019050614ec06000830186613fd3565b614ecd6020830185613fd3565b614eda6040830184613e42565b949350505050565b600081519050614ef181614186565b92915050565b600060208284031215614f0d57614f0c613da3565b5b6000614f1b84828501614ee2565b91505092915050565b82818337600083830152505050565b6000601f19601f8301169050919050565b6000614f5083856148ea565b9350614f5d838584614f24565b614f6683614f33565b840190509392505050565b6000608082019050614f866000830188613fd3565b614f936020830187613fd3565b614fa06040830186613e42565b8181036060830152614fb3818486614f44565b90509695505050505050565b7f4e6f7420656e6f7567682073746f636b20617661696c61626c6520666f72207360008201527f616c650000000000000000000000000000000000000000000000000000000000602082015250565b600061501b60238361435f565b915061502682614fbf565b604082019050919050565b6000602082019050818103600083015261504a8161500e565b9050919050565b7f596f7520617265206e6f7420746865206f776e6572206f66207468697320706f60008201527f7274666f6c696f21000000000000000000000000000000000000000000000000602082015250565b60006150ad60288361435f565b91506150b882615051565b604082019050919050565b600060208201905081810360008301526150dc816150a0565b9050919050565b60006150ee82613e38565b91506150f983613e38565b925082820390508181111561511157615110614448565b5b92915050565b7f796f757220706f7274666f6c696f28746f6b656e6e49442920686173206e6f2060008201527f73746f636b207468697320636f6d70616e790000000000000000000000000000602082015250565b600061517360328361435f565b915061517e82615117565b604082019050919050565b600060208201905081810360008301526151a281615166565b9050919050565b7f796f752063616e74206c697374206d6f72652073746f636b207468616e20796f60008201527f75206f776e20696e2074686520636f6d70616e79212100000000000000000000602082015250565b600061520560368361435f565b9150615210826151a9565b604082019050919050565b60006020820190508181036000830152615234816151f8565b9050919050565b7f546f74616c206c697374656420616d6f756e7420776f756c642065786365656460008201527f206f776e65642062616c616e6365000000000000000000000000000000000000602082015250565b6000615297602e8361435f565b91506152a28261523b565b604082019050919050565b600060208201905081810360008301526152c68161528a565b9050919050565b7f6e6f7420656e6f7567682073746f636b20697320617574686f72697a6564207460008201527f6f20626520736f6c640000000000000000000000000000000000000000000000602082015250565b600061532960298361435f565b9150615334826152cd565b604082019050919050565b600060208201905081810360008301526153588161531c565b9050919050565b7f496e76616c6964206c697374696e6720696e6465780000000000000000000000600082015250565b600061539560158361435f565b91506153a08261535f565b602082019050919050565b600060208201905081810360008301526153c481615388565b9050919050565b7f4e487b7100000000000000000000000000000000000000000000000000000000600052603160045260246000fdfea26469706673582212209d66376fa4736e33e48c29582eaaff329095750b8db9d48548e3b0b67b63421364736f6c634300081c0033",
  "linkReferences": {},
  "deployedLinkReferences": {}
}