{
  "_format": "hh-sol-artifact-1",
  "contractName": "portfolio",
  "sourceName": "contracts/portfolio.sol",
  "abi": [
    {
      "inputs": [
        {
          "internalType": "address",
          "name": "paymentTokenAddress",
          "type": "address"
        }
      ],
      "stateMutability": "nonpayable",
      "type": "constructor"
    },
    {
      "anonymous": false,
      "inputs": [
        {
          "indexed": true,
          "internalType": "address",
          "name": "owner",
          "type": "address"
        },
        {
          "indexed": true,
          "internalType": "address",
          "name": "spender",
          "type": "address"
        },
        {
          "indexed": true,
          "internalType": "uint256",
          "name": "id",
          "type": "uint256"
        }
      ],
      "name": "Approval",
      "type": "event"
    },
    {
      "anonymous": false,
      "inputs": [
        {
          "indexed": true,
          "internalType": "address",
          "name": "owner",
          "type": "address"
        },
        {
          "indexed": true,
          "internalType": "address",
          "name": "operator",
          "type": "address"
        },
        {
          "indexed": false,
          "internalType": "bool",
          "name": "approved",
          "type": "bool"
        }
      ],
      "name": "ApprovalForAll",
      "type": "event"
    },
    {
      "anonymous": false,
      "inputs": [
        {
          "indexed": true,
          "internalType": "address",
          "name": "from",
          "type": "address"
        },
        {
          "indexed": true,
          "internalType": "address",
          "name": "to",
          "type": "address"
        },
        {
          "indexed": true,
          "internalType": "uint256",
          "name": "id",
          "type": "uint256"
        }
      ],
      "name": "Transfer",
      "type": "event"
    },
    {
      "inputs": [
        {
          "internalType": "uint256",
          "name": "",
          "type": "uint256"
        }
      ],
      "name": "_isPortfolioForSale",
      "outputs": [
        {
          "internalType": "bool",
          "name": "",
          "type": "bool"
        }
      ],
      "stateMutability": "view",
      "type": "function"
    },
    {
      "inputs": [
        {
          "internalType": "uint256",
          "name": "",
          "type": "uint256"
        }
      ],
      "name": "_listedPortfolioOwner",
      "outputs": [
        {
          "internalType": "address",
          "name": "",
          "type": "address"
        }
      ],
      "stateMutability": "view",
      "type": "function"
    },
    {
      "inputs": [
        {
          "internalType": "address",
          "name": "",
          "type": "address"
        }
      ],
      "name": "_ownedToken",
      "outputs": [
        {
          "internalType": "uint256",
          "name": "",
          "type": "uint256"
        }
      ],
      "stateMutability": "view",
      "type": "function"
    },
    {
      "inputs": [
        {
          "internalType": "address",
          "name": "",
          "type": "address"
        },
        {
          "internalType": "uint256",
          "name": "",
          "type": "uint256"
        }
      ],
      "name": "_stocksForSale",
      "outputs": [
        {
          "internalType": "address",
          "name": "seller",
          "type": "address"
        },
        {
          "internalType": "uint256",
          "name": "count",
          "type": "uint256"
        }
      ],
      "stateMutability": "view",
      "type": "function"
    },
    {
      "inputs": [
        {
          "internalType": "uint256",
          "name": "",
          "type": "uint256"
        },
        {
          "internalType": "address",
          "name": "",
          "type": "address"
        }
      ],
      "name": "_tokenHasStock",
      "outputs": [
        {
          "internalType": "bool",
          "name": "",
          "type": "bool"
        }
      ],
      "stateMutability": "view",
      "type": "function"
    },
    {
      "inputs": [
        {
          "internalType": "uint256",
          "name": "",
          "type": "uint256"
        },
        {
          "internalType": "uint256",
          "name": "",
          "type": "uint256"
        }
      ],
      "name": "_tokenStockAddresses",
      "outputs": [
        {
          "internalType": "address",
          "name": "",
          "type": "address"
        }
      ],
      "stateMutability": "view",
      "type": "function"
    },
    {
      "inputs": [
        {
          "internalType": "address",
          "name": "",
          "type": "address"
        }
      ],
      "name": "_totalSellCount",
      "outputs": [
        {
          "internalType": "uint256",
          "name": "",
          "type": "uint256"
        }
      ],
      "stateMutability": "view",
      "type": "function"
    },
    {
      "inputs": [
        {
          "internalType": "address",
          "name": "",
          "type": "address"
        },
        {
          "internalType": "address",
          "name": "",
          "type": "address"
        }
      ],
      "name": "_userListedStocks",
      "outputs": [
        {
          "internalType": "uint256",
          "name": "",
          "type": "uint256"
        }
      ],
      "stateMutability": "view",
      "type": "function"
    },
    {
      "inputs": [
        {
          "internalType": "address",
          "name": "spender",
          "type": "address"
        },
        {
          "internalType": "uint256",
          "name": "id",
          "type": "uint256"
        }
      ],
      "name": "approve",
      "outputs": [],
      "stateMutability": "nonpayable",
      "type": "function"
    },
    {
      "inputs": [
        {
          "internalType": "address",
          "name": "owner",
          "type": "address"
        }
      ],
      "name": "balanceOf",
      "outputs": [
        {
          "internalType": "uint256",
          "name": "",
          "type": "uint256"
        }
      ],
      "stateMutability": "view",
      "type": "function"
    },
    {
      "inputs": [
        {
          "internalType": "address",
          "name": "stockFtAddress",
          "type": "address"
        },
        {
          "internalType": "uint256",
          "name": "count",
          "type": "uint256"
        }
      ],
      "name": "buy",
      "outputs": [],
      "stateMutability": "payable",
      "type": "function"
    },
    {
      "inputs": [
        {
          "internalType": "uint256",
          "name": "token_id",
          "type": "uint256"
        }
      ],
      "name": "buyPortfolio",
      "outputs": [],
      "stateMutability": "nonpayable",
      "type": "function"
    },
    {
      "inputs": [
        {
          "internalType": "address",
          "name": "stockFtAddress",
          "type": "address"
        }
      ],
      "name": "getAPrice",
      "outputs": [
        {
          "internalType": "uint256",
          "name": "",
          "type": "uint256"
        }
      ],
      "stateMutability": "pure",
      "type": "function"
    },
    {
      "inputs": [
        {
          "internalType": "uint256",
          "name": "id",
          "type": "uint256"
        }
      ],
      "name": "getApproved",
      "outputs": [
        {
          "internalType": "address",
          "name": "",
          "type": "address"
        }
      ],
      "stateMutability": "view",
      "type": "function"
    },
    {
      "inputs": [
        {
          "internalType": "address",
          "name": "stockFtAddress",
          "type": "address"
        },
        {
          "internalType": "uint256",
          "name": "count",
          "type": "uint256"
        }
      ],
      "name": "getPrice",
      "outputs": [
        {
          "internalType": "uint256",
          "name": "",
          "type": "uint256"
        }
      ],
      "stateMutability": "view",
      "type": "function"
    },
    {
      "inputs": [
        {
          "internalType": "address",
          "name": "stockAddress",
          "type": "address"
        }
      ],
      "name": "getStockListingsLength",
      "outputs": [
        {
          "internalType": "uint256",
          "name": "",
          "type": "uint256"
        }
      ],
      "stateMutability": "view",
      "type": "function"
    },
    {
      "inputs": [
        {
          "internalType": "uint256",
          "name": "tokenId",
          "type": "uint256"
        }
      ],
      "name": "getTokenStockAddresses",
      "outputs": [
        {
          "internalType": "address[]",
          "name": "",
          "type": "address[]"
        }
      ],
      "stateMutability": "view",
      "type": "function"
    },
    {
      "inputs": [
        {
          "internalType": "address",
          "name": "",
          "type": "address"
        },
        {
          "internalType": "address",
          "name": "",
          "type": "address"
        }
      ],
      "name": "isApprovedForAll",
      "outputs": [
        {
          "internalType": "bool",
          "name": "",
          "type": "bool"
        }
      ],
      "stateMutability": "view",
      "type": "function"
    },
    {
      "inputs": [],
      "name": "listPortfolioToSell",
      "outputs": [],
      "stateMutability": "nonpayable",
      "type": "function"
    },
    {
      "inputs": [
        {
          "internalType": "address",
          "name": "stockFtAddress",
          "type": "address"
        },
        {
          "internalType": "uint256",
          "name": "count",
          "type": "uint256"
        }
      ],
      "name": "list_stock_to_sell",
      "outputs": [],
      "stateMutability": "nonpayable",
      "type": "function"
    },
    {
      "inputs": [],
      "name": "mint",
      "outputs": [],
      "stateMutability": "nonpayable",
      "type": "function"
    },
    {
      "inputs": [
        {
          "internalType": "address",
          "name": "from",
          "type": "address"
        },
        {
          "internalType": "address",
          "name": "to",
          "type": "address"
        },
        {
          "internalType": "uint256",
          "name": "id",
          "type": "uint256"
        }
      ],
      "name": "myTransferFrom",
      "outputs": [],
      "stateMutability": "nonpayable",
      "type": "function"
    },
    {
      "inputs": [
        {
          "internalType": "uint256",
          "name": "id",
          "type": "uint256"
        }
      ],
      "name": "ownerOf",
      "outputs": [
        {
          "internalType": "address",
          "name": "owner",
          "type": "address"
        }
      ],
      "stateMutability": "view",
      "type": "function"
    },
    {
      "inputs": [
        {
          "internalType": "address",
          "name": "from",
          "type": "address"
        },
        {
          "internalType": "address",
          "name": "to",
          "type": "address"
        },
        {
          "internalType": "uint256",
          "name": "id",
          "type": "uint256"
        }
      ],
      "name": "safeTransferFrom",
      "outputs": [],
      "stateMutability": "nonpayable",
      "type": "function"
    },
    {
      "inputs": [
        {
          "internalType": "address",
          "name": "from",
          "type": "address"
        },
        {
          "internalType": "address",
          "name": "to",
          "type": "address"
        },
        {
          "internalType": "uint256",
          "name": "id",
          "type": "uint256"
        },
        {
          "internalType": "bytes",
          "name": "data",
          "type": "bytes"
        }
      ],
      "name": "safeTransferFrom",
      "outputs": [],
      "stateMutability": "nonpayable",
      "type": "function"
    },
    {
      "inputs": [
        {
          "internalType": "address",
          "name": "operator",
          "type": "address"
        },
        {
          "internalType": "bool",
          "name": "approved",
          "type": "bool"
        }
      ],
      "name": "setApprovalForAll",
      "outputs": [],
      "stateMutability": "nonpayable",
      "type": "function"
    },
    {
      "inputs": [
        {
          "internalType": "bytes4",
          "name": "interfaceId",
          "type": "bytes4"
        }
      ],
      "name": "supportsInterface",
      "outputs": [
        {
          "internalType": "bool",
          "name": "",
          "type": "bool"
        }
      ],
      "stateMutability": "pure",
      "type": "function"
    },
    {
      "inputs": [],
      "name": "tokenCount",
      "outputs": [
        {
          "internalType": "uint256",
          "name": "",
          "type": "uint256"
        }
      ],
      "stateMutability": "view",
      "type": "function"
    },
    {
      "inputs": [
        {
          "internalType": "address",
          "name": "from",
          "type": "address"
        },
        {
          "internalType": "address",
          "name": "to",
          "type": "address"
        },
        {
          "internalType": "uint256",
          "name": "id",
          "type": "uint256"
        }
      ],
      "name": "transferFrom",
      "outputs": [],
      "stateMutability": "nonpayable",
      "type": "function"
    },
    {
      "inputs": [
        {
          "internalType": "address",
          "name": "stockFtAddress",
          "type": "address"
        }
      ],
      "name": "updatePortfolio",
      "outputs": [
        {
          "internalType": "uint256",
          "name": "",
          "type": "uint256"
        }
      ],
      "stateMutability": "nonpayable",
      "type": "function"
    }
  ],
  "bytecode": "0x608060405234801561001057600080fd5b506040516155a53803806155a5833981810160405281019061003291906100e4565b600060048190555080600760006101000a81548173ffffffffffffffffffffffffffffffffffffffff021916908373ffffffffffffffffffffffffffffffffffffffff16021790555050610111565b600080fd5b600073ffffffffffffffffffffffffffffffffffffffff82169050919050565b60006100b182610086565b9050919050565b6100c1816100a6565b81146100cc57600080fd5b50565b6000815190506100de816100b8565b92915050565b6000602082840312156100fa576100f9610081565b5b6000610108848285016100cf565b91505092915050565b615485806101206000396000f3fe6080604052600436106101cd5760003560e01c80636352211e116100f7578063a22cb46511610095578063d24b20f511610064578063d24b20f5146106fa578063d2863e7514610723578063d7305c8314610760578063e985e9c51461079d576101cd565b8063a22cb46514610663578063afb21f2f1461068c578063b88d4fde146106b5578063cce7ec13146106de576101cd565b806373bd5bb4116100d157806373bd5bb41461058057806385ad5085146105bd5780639b232ab0146105fa5780639f181b5e14610638576101cd565b80636352211e146104c95780636c13e6511461050657806370a0823114610543576101cd565b80631249c58b1161016f578063449e815d1161013e578063449e815d146103d5578063567241151461041257806356a8c1171461044f5780635ba5f5101461048c576101cd565b80631249c58b1461035557806312e67db41461036c57806323b872dd1461038357806342842e0e146103ac576101cd565b8063078a235e116101ab578063078a235e14610275578063081812fc146102b2578063095ea7b3146102ef5780630dbf53e814610318576101cd565b8063016e44e7146101d25780630175b22f1461020f57806301ffc9a714610238575b600080fd5b3480156101de57600080fd5b506101f960048036038101906101f49190613d94565b6107da565b6040516102069190613dda565b60405180910390f35b34801561021b57600080fd5b5061023660048036038101906102319190613e21565b610826565b005b34801561024457600080fd5b5061025f600480360381019061025a9190613ecc565b610a90565b60405161026c9190613f14565b60405180910390f35b34801561028157600080fd5b5061029c60048036038101906102979190613d94565b610b62565b6040516102a99190613dda565b60405180910390f35b3480156102be57600080fd5b506102d960048036038101906102d49190613f2f565b610f0a565b6040516102e69190613f6b565b60405180910390f35b3480156102fb57600080fd5b5061031660048036038101906103119190613f86565b610fe7565b005b34801561032457600080fd5b5061033f600480360381019061033a9190613f2f565b6111cf565b60405161034c9190613f6b565b60405180910390f35b34801561036157600080fd5b5061036a611202565b005b34801561037857600080fd5b506103816113e7565b005b34801561038f57600080fd5b506103aa60048036038101906103a59190613e21565b6115b3565b005b3480156103b857600080fd5b506103d360048036038101906103ce9190613e21565b61189d565b005b3480156103e157600080fd5b506103fc60048036038101906103f79190613f86565b6119d5565b6040516104099190613dda565b60405180910390f35b34801561041e57600080fd5b5061043960048036038101906104349190613f2f565b611b25565b6040516104469190613f14565b60405180910390f35b34801561045b57600080fd5b5061047660048036038101906104719190613f2f565b611b45565b6040516104839190614084565b60405180910390f35b34801561049857600080fd5b506104b360048036038101906104ae91906140a6565b611c3f565b6040516104c09190613dda565b60405180910390f35b3480156104d557600080fd5b506104f060048036038101906104eb9190613f2f565b611c64565b6040516104fd9190613f6b565b60405180910390f35b34801561051257600080fd5b5061052d60048036038101906105289190613d94565b611d0f565b60405161053a9190613dda565b60405180910390f35b34801561054f57600080fd5b5061056a60048036038101906105659190613d94565b611d27565b6040516105779190613dda565b60405180910390f35b34801561058c57600080fd5b506105a760048036038101906105a29190613d94565b611dde565b6040516105b49190613dda565b60405180910390f35b3480156105c957600080fd5b506105e460048036038101906105df9190613d94565b611e5e565b6040516105f19190613dda565b60405180910390f35b34801561060657600080fd5b50610621600480360381019061061c9190613f86565b611e76565b60405161062f9291906140e6565b60405180910390f35b34801561064457600080fd5b5061064d611ed7565b60405161065a9190613dda565b60405180910390f35b34801561066f57600080fd5b5061068a6004803603810190610685919061413b565b611edd565b005b34801561069857600080fd5b506106b360048036038101906106ae9190613f2f565b611fda565b005b3480156106c157600080fd5b506106dc60048036038101906106d791906141e0565b612797565b005b6106f860048036038101906106f39190613f86565b6128d5565b005b34801561070657600080fd5b50610721600480360381019061071c9190613f86565b613062565b005b34801561072f57600080fd5b5061074a60048036038101906107459190614268565b6136cf565b6040516107579190613f14565b60405180910390f35b34801561076c57600080fd5b50610787600480360381019061078291906142a8565b6136fe565b6040516107949190613f6b565b60405180910390f35b3480156107a957600080fd5b506107c460048036038101906107bf91906140a6565b61374c565b6040516107d19190613f14565b60405180910390f35b6000600860008373ffffffffffffffffffffffffffffffffffffffff1673ffffffffffffffffffffffffffffffffffffffff168152602001908152602001600020805490509050919050565b60008082815260200190815260200160002060009054906101000a900473ffffffffffffffffffffffffffffffffffffffff1673ffffffffffffffffffffffffffffffffffffffff168373ffffffffffffffffffffffffffffffffffffffff16146108c6576040517f08c379a00000000000000000000000000000000000000000000000000000000081526004016108bd90614345565b60405180910390fd5b600073ffffffffffffffffffffffffffffffffffffffff168273ffffffffffffffffffffffffffffffffffffffff1603610935576040517f08c379a000000000000000000000000000000000000000000000000000000000815260040161092c906143b1565b60405180910390fd5b600160008473ffffffffffffffffffffffffffffffffffffffff1673ffffffffffffffffffffffffffffffffffffffff168152602001908152602001600020600081548092919061098590614400565b9190505550600160008373ffffffffffffffffffffffffffffffffffffffff1673ffffffffffffffffffffffffffffffffffffffff16815260200190815260200160002060008154809291906109da90614429565b91905055508160008083815260200190815260200160002060006101000a81548173ffffffffffffffffffffffffffffffffffffffff021916908373ffffffffffffffffffffffffffffffffffffffff160217905550808273ffffffffffffffffffffffffffffffffffffffff168473ffffffffffffffffffffffffffffffffffffffff167fddf252ad1be2c89b69c2b068fc378daa952ba7f163c4a11628f55a4df523b3ef60405160405180910390a4505050565b60007f80ac58cd000000000000000000000000000000000000000000000000000000007bffffffffffffffffffffffffffffffffffffffffffffffffffffffff1916827bffffffffffffffffffffffffffffffffffffffffffffffffffffffff19161480610b5b57507f01ffc9a7000000000000000000000000000000000000000000000000000000007bffffffffffffffffffffffffffffffffffffffffffffffffffffffff1916827bffffffffffffffffffffffffffffffffffffffffffffffffffffffff1916145b9050919050565b6000808273ffffffffffffffffffffffffffffffffffffffff166318160ddd6040518163ffffffff1660e01b8152600401602060405180830381865afa158015610bb0573d6000803e3d6000fd5b505050506040513d601f19601f82011682018060405250810190610bd49190614486565b11610c14576040517f08c379a0000000000000000000000000000000000000000000000000000000008152600401610c0b906144ff565b60405180910390fd5b6000600660003373ffffffffffffffffffffffffffffffffffffffff1673ffffffffffffffffffffffffffffffffffffffff1681526020019081526020016000205490503373ffffffffffffffffffffffffffffffffffffffff1660008083815260200190815260200160002060009054906101000a900473ffffffffffffffffffffffffffffffffffffffff1673ffffffffffffffffffffffffffffffffffffffff1614610cf8576040517f08c379a0000000000000000000000000000000000000000000000000000000008152600401610cef90614591565b60405180910390fd5b60008373ffffffffffffffffffffffffffffffffffffffff166370a08231336040518263ffffffff1660e01b8152600401610d339190613f6b565b602060405180830381865afa158015610d50573d6000803e3d6000fd5b505050506040513d601f19601f82011682018060405250810190610d749190614486565b905060008111610db9576040517f08c379a0000000000000000000000000000000000000000000000000000000008152600401610db090614623565b60405180910390fd5b600115156005600084815260200190815260200160002060008673ffffffffffffffffffffffffffffffffffffffff1673ffffffffffffffffffffffffffffffffffffffff16815260200190815260200160002060009054906101000a900460ff16151514610f005760016005600084815260200190815260200160002060008673ffffffffffffffffffffffffffffffffffffffff1673ffffffffffffffffffffffffffffffffffffffff16815260200190815260200160002060006101000a81548160ff021916908315150217905550600c6000838152602001908152602001600020849080600181540180825580915050600190039060005260206000200160009091909190916101000a81548173ffffffffffffffffffffffffffffffffffffffff021916908373ffffffffffffffffffffffffffffffffffffffff1602179055505b8092505050919050565b60008073ffffffffffffffffffffffffffffffffffffffff1660008084815260200190815260200160002060009054906101000a900473ffffffffffffffffffffffffffffffffffffffff1673ffffffffffffffffffffffffffffffffffffffff1603610fac576040517f08c379a0000000000000000000000000000000000000000000000000000000008152600401610fa39061468f565b60405180910390fd5b6002600083815260200190815260200160002060009054906101000a900473ffffffffffffffffffffffffffffffffffffffff169050919050565b600080600083815260200190815260200160002060009054906101000a900473ffffffffffffffffffffffffffffffffffffffff1690508073ffffffffffffffffffffffffffffffffffffffff163373ffffffffffffffffffffffffffffffffffffffff1614806110de5750600360008273ffffffffffffffffffffffffffffffffffffffff1673ffffffffffffffffffffffffffffffffffffffff16815260200190815260200160002060003373ffffffffffffffffffffffffffffffffffffffff1673ffffffffffffffffffffffffffffffffffffffff16815260200190815260200160002060009054906101000a900460ff165b61111d576040517f08c379a0000000000000000000000000000000000000000000000000000000008152600401611114906146fb565b60405180910390fd5b826002600084815260200190815260200160002060006101000a81548173ffffffffffffffffffffffffffffffffffffffff021916908373ffffffffffffffffffffffffffffffffffffffff160217905550818373ffffffffffffffffffffffffffffffffffffffff168273ffffffffffffffffffffffffffffffffffffffff167f8c5be1e5ebec7d5bd14f71427d1e84f3dd0314c0f7b2291e5b200ac8c7c3b92560405160405180910390a4505050565b600d6020528060005260406000206000915054906101000a900473ffffffffffffffffffffffffffffffffffffffff1681565b6000600160003373ffffffffffffffffffffffffffffffffffffffff1673ffffffffffffffffffffffffffffffffffffffff1681526020019081526020016000205414611284576040517f08c379a000000000000000000000000000000000000000000000000000000000815260040161127b9061478d565b60405180910390fd5b600160045461129391906147ad565b600481905550600160003373ffffffffffffffffffffffffffffffffffffffff1673ffffffffffffffffffffffffffffffffffffffff16815260200190815260200160002060008154809291906112e990614429565b919050555033600080600454815260200190815260200160002060006101000a81548173ffffffffffffffffffffffffffffffffffffffff021916908373ffffffffffffffffffffffffffffffffffffffff160217905550600454600660003373ffffffffffffffffffffffffffffffffffffffff1673ffffffffffffffffffffffffffffffffffffffff168152602001908152602001600020819055506004543373ffffffffffffffffffffffffffffffffffffffff16600073ffffffffffffffffffffffffffffffffffffffff167fddf252ad1be2c89b69c2b068fc378daa952ba7f163c4a11628f55a4df523b3ef60405160405180910390a4565b6000600660003373ffffffffffffffffffffffffffffffffffffffff1673ffffffffffffffffffffffffffffffffffffffff1681526020019081526020016000205490503373ffffffffffffffffffffffffffffffffffffffff1660008083815260200190815260200160002060009054906101000a900473ffffffffffffffffffffffffffffffffffffffff1673ffffffffffffffffffffffffffffffffffffffff16146114cb576040517f08c379a00000000000000000000000000000000000000000000000000000000081526004016114c290614591565b60405180910390fd5b60001515600b600083815260200190815260200160002060009054906101000a900460ff16151514611532576040517f08c379a000000000000000000000000000000000000000000000000000000000815260040161152990614853565b60405180910390fd5b6001600b600083815260200190815260200160002060006101000a81548160ff02191690831515021790555033600d600083815260200190815260200160002060006101000a81548173ffffffffffffffffffffffffffffffffffffffff021916908373ffffffffffffffffffffffffffffffffffffffff16021790555050565b60008082815260200190815260200160002060009054906101000a900473ffffffffffffffffffffffffffffffffffffffff1673ffffffffffffffffffffffffffffffffffffffff168373ffffffffffffffffffffffffffffffffffffffff1614611653576040517f08c379a000000000000000000000000000000000000000000000000000000000815260040161164a90614345565b60405180910390fd5b600073ffffffffffffffffffffffffffffffffffffffff168273ffffffffffffffffffffffffffffffffffffffff16036116c2576040517f08c379a00000000000000000000000000000000000000000000000000000000081526004016116b9906143b1565b60405180910390fd5b6116cd83338361377b565b61170c576040517f08c379a0000000000000000000000000000000000000000000000000000000008152600401611703906146fb565b60405180910390fd5b600160008473ffffffffffffffffffffffffffffffffffffffff1673ffffffffffffffffffffffffffffffffffffffff168152602001908152602001600020600081548092919061175c90614400565b9190505550600160008373ffffffffffffffffffffffffffffffffffffffff1673ffffffffffffffffffffffffffffffffffffffff16815260200190815260200160002060008154809291906117b190614429565b91905055508160008083815260200190815260200160002060006101000a81548173ffffffffffffffffffffffffffffffffffffffff021916908373ffffffffffffffffffffffffffffffffffffffff1602179055506002600082815260200190815260200160002060006101000a81549073ffffffffffffffffffffffffffffffffffffffff0219169055808273ffffffffffffffffffffffffffffffffffffffff168473ffffffffffffffffffffffffffffffffffffffff167fddf252ad1be2c89b69c2b068fc378daa952ba7f163c4a11628f55a4df523b3ef60405160405180910390a4505050565b6118a88383836115b3565b60008273ffffffffffffffffffffffffffffffffffffffff163b1480611991575063150b7a0260e01b7bffffffffffffffffffffffffffffffffffffffffffffffffffffffff19168273ffffffffffffffffffffffffffffffffffffffff1663150b7a023386856040518463ffffffff1660e01b815260040161192d939291906148aa565b6020604051808303816000875af115801561194c573d6000803e3d6000fd5b505050506040513d601f19601f820116820180604052508101906119709190614909565b7bffffffffffffffffffffffffffffffffffffffffffffffffffffffff1916145b6119d0576040517f08c379a00000000000000000000000000000000000000000000000000000000081526004016119c790614982565b60405180910390fd5b505050565b6000808373ffffffffffffffffffffffffffffffffffffffff166318160ddd6040518163ffffffff1660e01b8152600401602060405180830381865afa158015611a23573d6000803e3d6000fd5b505050506040513d601f19601f82011682018060405250810190611a479190614486565b11611a87576040517f08c379a0000000000000000000000000000000000000000000000000000000008152600401611a7e906144ff565b60405180910390fd5b81600960008573ffffffffffffffffffffffffffffffffffffffff1673ffffffffffffffffffffffffffffffffffffffff168152602001908152602001600020541015611b09576040517f08c379a0000000000000000000000000000000000000000000000000000000008152600401611b0090614a14565b60405180910390fd5b600061271090508281611b1c9190614a34565b91505092915050565b600b6020528060005260406000206000915054906101000a900460ff1681565b60606000600c60008481526020019081526020016000208054905011611ba0576040517f08c379a0000000000000000000000000000000000000000000000000000000008152600401611b9790614ae8565b60405180910390fd5b600c6000838152602001908152602001600020805480602002602001604051908101604052809291908181526020018280548015611c3357602002820191906000526020600020905b8160009054906101000a900473ffffffffffffffffffffffffffffffffffffffff1673ffffffffffffffffffffffffffffffffffffffff1681526020019060010190808311611be9575b50505050509050919050565b600a602052816000526040600020602052806000526040600020600091509150505481565b600080600083815260200190815260200160002060009054906101000a900473ffffffffffffffffffffffffffffffffffffffff169050600073ffffffffffffffffffffffffffffffffffffffff168173ffffffffffffffffffffffffffffffffffffffff1603611d0a576040517f08c379a0000000000000000000000000000000000000000000000000000000008152600401611d019061468f565b60405180910390fd5b919050565b60096020528060005260406000206000915090505481565b60008073ffffffffffffffffffffffffffffffffffffffff168273ffffffffffffffffffffffffffffffffffffffff1603611d97576040517f08c379a0000000000000000000000000000000000000000000000000000000008152600401611d8e90614b54565b60405180910390fd5b600160008373ffffffffffffffffffffffffffffffffffffffff1673ffffffffffffffffffffffffffffffffffffffff168152602001908152602001600020549050919050565b60008073ffffffffffffffffffffffffffffffffffffffff168273ffffffffffffffffffffffffffffffffffffffff1603611e4e576040517f08c379a0000000000000000000000000000000000000000000000000000000008152600401611e4590614bc0565b60405180910390fd5b6000612710905080915050919050565b60066020528060005260406000206000915090505481565b60086020528160005260406000208181548110611e9257600080fd5b9060005260206000209060020201600091509150508060000160009054906101000a900473ffffffffffffffffffffffffffffffffffffffff16908060010154905082565b60045481565b80600360003373ffffffffffffffffffffffffffffffffffffffff1673ffffffffffffffffffffffffffffffffffffffff16815260200190815260200160002060008473ffffffffffffffffffffffffffffffffffffffff1673ffffffffffffffffffffffffffffffffffffffff16815260200190815260200160002060006101000a81548160ff0219169083151502179055508173ffffffffffffffffffffffffffffffffffffffff163373ffffffffffffffffffffffffffffffffffffffff167f17307eab39ab6107e8899845ad3d59bd9653f200f220920489ca2b5937696c3183604051611fce9190613f14565b60405180910390a35050565b600b600082815260200190815260200160002060009054906101000a900460ff1661203a576040517f08c379a000000000000000000000000000000000000000000000000000000000815260040161203190614c52565b60405180910390fd5b6000600d600083815260200190815260200160002060009054906101000a900473ffffffffffffffffffffffffffffffffffffffff169050600073ffffffffffffffffffffffffffffffffffffffff168173ffffffffffffffffffffffffffffffffffffffff16036120e1576040517f08c379a00000000000000000000000000000000000000000000000000000000081526004016120d890614cbe565b60405180910390fd5b3373ffffffffffffffffffffffffffffffffffffffff168173ffffffffffffffffffffffffffffffffffffffff160361214f576040517f08c379a000000000000000000000000000000000000000000000000000000000815260040161214690614d50565b60405180910390fd5b6000805b600c6000858152602001908152602001600020805490508110156122dd576000600c6000868152602001908152602001600020828154811061219857612197614d70565b5b9060005260206000200160009054906101000a900473ffffffffffffffffffffffffffffffffffffffff1690506005600086815260200190815260200160002060008273ffffffffffffffffffffffffffffffffffffffff1673ffffffffffffffffffffffffffffffffffffffff16815260200190815260200160002060009054906101000a900460ff16156122cf5760008173ffffffffffffffffffffffffffffffffffffffff166370a08231866040518263ffffffff1660e01b81526004016122639190613f6b565b602060405180830381865afa158015612280573d6000803e3d6000fd5b505050506040513d601f19601f820116820180604052508101906122a49190614486565b905060006122b183611dde565b905081816122bf9190614a34565b856122ca91906147ad565b945050505b508080600101915050612153565b506000600760009054906101000a900473ffffffffffffffffffffffffffffffffffffffff1673ffffffffffffffffffffffffffffffffffffffff1663dd62ed3e33306040518363ffffffff1660e01b815260040161233d929190614d9f565b602060405180830381865afa15801561235a573d6000803e3d6000fd5b505050506040513d601f19601f8201168201806040525081019061237e9190614486565b9050818110156123c3576040517f08c379a00000000000000000000000000000000000000000000000000000000081526004016123ba90614e14565b60405180910390fd5b60005b600c6000868152602001908152602001600020805490508110156125b4576000600c6000878152602001908152602001600020828154811061240b5761240a614d70565b5b9060005260206000200160009054906101000a900473ffffffffffffffffffffffffffffffffffffffff1690506005600087815260200190815260200160002060008273ffffffffffffffffffffffffffffffffffffffff1673ffffffffffffffffffffffffffffffffffffffff16815260200190815260200160002060009054906101000a900460ff16156125a65760008173ffffffffffffffffffffffffffffffffffffffff166370a08231876040518263ffffffff1660e01b81526004016124d69190613f6b565b602060405180830381865afa1580156124f3573d6000803e3d6000fd5b505050506040513d601f19601f820116820180604052508101906125179190614486565b905060008111156125a4578173ffffffffffffffffffffffffffffffffffffffff166323b872dd8733846040518463ffffffff1660e01b815260040161255f93929190614e34565b6020604051808303816000875af115801561257e573d6000803e3d6000fd5b505050506040513d601f19601f820116820180604052508101906125a29190614e80565b505b505b5080806001019150506123c6565b506125c0833386610826565b83600660003373ffffffffffffffffffffffffffffffffffffffff1673ffffffffffffffffffffffffffffffffffffffff168152602001908152602001600020819055506000600660008573ffffffffffffffffffffffffffffffffffffffff1673ffffffffffffffffffffffffffffffffffffffff16815260200190815260200160002081905550600660008473ffffffffffffffffffffffffffffffffffffffff1673ffffffffffffffffffffffffffffffffffffffff168152602001908152602001600020600090556000600b600086815260200190815260200160002060006101000a81548160ff021916908315150217905550600d600085815260200190815260200160002060006101000a81549073ffffffffffffffffffffffffffffffffffffffff0219169055600760009054906101000a900473ffffffffffffffffffffffffffffffffffffffff1673ffffffffffffffffffffffffffffffffffffffff166323b872dd3385856040518463ffffffff1660e01b815260040161274d93929190614e34565b6020604051808303816000875af115801561276c573d6000803e3d6000fd5b505050506040513d601f19601f820116820180604052508101906127909190614e80565b5050505050565b6127a28585856115b3565b60008473ffffffffffffffffffffffffffffffffffffffff163b148061288f575063150b7a0260e01b7bffffffffffffffffffffffffffffffffffffffffffffffffffffffff19168473ffffffffffffffffffffffffffffffffffffffff1663150b7a0233888787876040518663ffffffff1660e01b815260040161282b959493929190614efa565b6020604051808303816000875af115801561284a573d6000803e3d6000fd5b505050506040513d601f19601f8201168201806040525081019061286e9190614909565b7bffffffffffffffffffffffffffffffffffffffffffffffffffffffff1916145b6128ce576040517f08c379a00000000000000000000000000000000000000000000000000000000081526004016128c590614982565b60405180910390fd5b5050505050565b60008273ffffffffffffffffffffffffffffffffffffffff166318160ddd6040518163ffffffff1660e01b8152600401602060405180830381865afa158015612922573d6000803e3d6000fd5b505050506040513d601f19601f820116820180604052508101906129469190614486565b11612986576040517f08c379a000000000000000000000000000000000000000000000000000000000815260040161297d906144ff565b60405180910390fd5b80600960008473ffffffffffffffffffffffffffffffffffffffff1673ffffffffffffffffffffffffffffffffffffffff168152602001908152602001600020541015612a08576040517f08c379a00000000000000000000000000000000000000000000000000000000081526004016129ff90614fba565b60405180910390fd5b6000600660003373ffffffffffffffffffffffffffffffffffffffff1673ffffffffffffffffffffffffffffffffffffffff1681526020019081526020016000205490503373ffffffffffffffffffffffffffffffffffffffff1660008083815260200190815260200160002060009054906101000a900473ffffffffffffffffffffffffffffffffffffffff1673ffffffffffffffffffffffffffffffffffffffff1614612aec576040517f08c379a0000000000000000000000000000000000000000000000000000000008152600401612ae39061504c565b60405180910390fd5b6000612af884846119d5565b905080341015612b3d576040517f08c379a0000000000000000000000000000000000000000000000000000000008152600401612b34906150b8565b60405180910390fd5b600083905060005b600860008773ffffffffffffffffffffffffffffffffffffffff1673ffffffffffffffffffffffffffffffffffffffff1681526020019081526020016000208054905081108015612b965750600082115b15612fce576000600860008873ffffffffffffffffffffffffffffffffffffffff1673ffffffffffffffffffffffffffffffffffffffff1681526020019081526020016000208281548110612bee57612bed614d70565b5b9060005260206000209060020201905080600101548310612de8578673ffffffffffffffffffffffffffffffffffffffff166323b872dd8260000160009054906101000a900473ffffffffffffffffffffffffffffffffffffffff163384600101546040518463ffffffff1660e01b8152600401612c6e93929190614e34565b6020604051808303816000875af1158015612c8d573d6000803e3d6000fd5b505050506040513d601f19601f82011682018060405250810190612cb19190614e80565b50806001015483612cc291906150d8565b92508060010154600960008973ffffffffffffffffffffffffffffffffffffffff1673ffffffffffffffffffffffffffffffffffffffff1681526020019081526020016000206000828254612d1791906150d8565b925050819055508060010154600a60008360000160009054906101000a900473ffffffffffffffffffffffffffffffffffffffff1673ffffffffffffffffffffffffffffffffffffffff1673ffffffffffffffffffffffffffffffffffffffff16815260200190815260200160002060008973ffffffffffffffffffffffffffffffffffffffff1673ffffffffffffffffffffffffffffffffffffffff1681526020019081526020016000206000828254612dd291906150d8565b92505081905550612de387836138af565b612fc8565b8673ffffffffffffffffffffffffffffffffffffffff166323b872dd8260000160009054906101000a900473ffffffffffffffffffffffffffffffffffffffff1633866040518463ffffffff1660e01b8152600401612e4993929190614e34565b6020604051808303816000875af1158015612e68573d6000803e3d6000fd5b505050506040513d601f19601f82011682018060405250810190612e8c9190614e80565b5082816001016000828254612ea191906150d8565b9250508190555082600960008973ffffffffffffffffffffffffffffffffffffffff1673ffffffffffffffffffffffffffffffffffffffff1681526020019081526020016000206000828254612ef791906150d8565b9250508190555082600a60008360000160009054906101000a900473ffffffffffffffffffffffffffffffffffffffff1673ffffffffffffffffffffffffffffffffffffffff1673ffffffffffffffffffffffffffffffffffffffff16815260200190815260200160002060008973ffffffffffffffffffffffffffffffffffffffff1673ffffffffffffffffffffffffffffffffffffffff1681526020019081526020016000206000828254612fae91906150d8565b92505081905550600092508180612fc490614429565b9250505b50612b45565b612fd786610b62565b5060008584612fe6919061513b565b90508281612ff49190614a34565b341115613059573373ffffffffffffffffffffffffffffffffffffffff166108fc84836130219190614a34565b3461302c91906150d8565b9081150290604051600060405180830381858888f19350505050158015613057573d6000803e3d6000fd5b505b50505050505050565b6000600660003373ffffffffffffffffffffffffffffffffffffffff1673ffffffffffffffffffffffffffffffffffffffff1681526020019081526020016000205490506130af83610b62565b5060008373ffffffffffffffffffffffffffffffffffffffff166318160ddd6040518163ffffffff1660e01b8152600401602060405180830381865afa1580156130fd573d6000803e3d6000fd5b505050506040513d601f19601f820116820180604052508101906131219190614486565b11613161576040517f08c379a0000000000000000000000000000000000000000000000000000000008152600401613158906144ff565b60405180910390fd5b3373ffffffffffffffffffffffffffffffffffffffff1660008083815260200190815260200160002060009054906101000a900473ffffffffffffffffffffffffffffffffffffffff1673ffffffffffffffffffffffffffffffffffffffff1614613201576040517f08c379a00000000000000000000000000000000000000000000000000000000081526004016131f890614591565b60405180910390fd5b600115156005600083815260200190815260200160002060008573ffffffffffffffffffffffffffffffffffffffff1673ffffffffffffffffffffffffffffffffffffffff16815260200190815260200160002060009054906101000a900460ff161515146132a5576040517f08c379a000000000000000000000000000000000000000000000000000000000815260040161329c906151de565b60405180910390fd5b60008373ffffffffffffffffffffffffffffffffffffffff166370a08231336040518263ffffffff1660e01b81526004016132e09190613f6b565b602060405180830381865afa1580156132fd573d6000803e3d6000fd5b505050506040513d601f19601f820116820180604052508101906133219190614486565b905080831115613366576040517f08c379a000000000000000000000000000000000000000000000000000000000815260040161335d90615270565b60405180910390fd5b6000600a60003373ffffffffffffffffffffffffffffffffffffffff1673ffffffffffffffffffffffffffffffffffffffff16815260200190815260200160002060008673ffffffffffffffffffffffffffffffffffffffff1673ffffffffffffffffffffffffffffffffffffffff1681526020019081526020016000205490508184826133f491906147ad565b1115613435576040517f08c379a000000000000000000000000000000000000000000000000000000000815260040161342c90615302565b60405180910390fd5b60008573ffffffffffffffffffffffffffffffffffffffff1663dd62ed3e33306040518363ffffffff1660e01b8152600401613472929190614d9f565b602060405180830381865afa15801561348f573d6000803e3d6000fd5b505050506040513d601f19601f820116820180604052508101906134b39190614486565b9050848110156134f8576040517f08c379a00000000000000000000000000000000000000000000000000000000081526004016134ef90615394565b60405180910390fd5b600860008773ffffffffffffffffffffffffffffffffffffffff1673ffffffffffffffffffffffffffffffffffffffff16815260200190815260200160002060405180604001604052803373ffffffffffffffffffffffffffffffffffffffff16815260200187815250908060018154018082558091505060019003906000526020600020906002020160009091909190915060008201518160000160006101000a81548173ffffffffffffffffffffffffffffffffffffffff021916908373ffffffffffffffffffffffffffffffffffffffff16021790555060208201518160010155505084600960008873ffffffffffffffffffffffffffffffffffffffff1673ffffffffffffffffffffffffffffffffffffffff168152602001908152602001600020600082825461362d91906147ad565b9250508190555084600a60003373ffffffffffffffffffffffffffffffffffffffff1673ffffffffffffffffffffffffffffffffffffffff16815260200190815260200160002060008873ffffffffffffffffffffffffffffffffffffffff1673ffffffffffffffffffffffffffffffffffffffff16815260200190815260200160002060008282546136c091906147ad565b92505081905550505050505050565b60056020528160005260406000206020528060005260406000206000915091509054906101000a900460ff1681565b600c602052816000526040600020818154811061371a57600080fd5b906000526020600020016000915091509054906101000a900473ffffffffffffffffffffffffffffffffffffffff1681565b60036020528160005260406000206020528060005260406000206000915091509054906101000a900460ff1681565b60008373ffffffffffffffffffffffffffffffffffffffff168373ffffffffffffffffffffffffffffffffffffffff16148061383d5750600360008573ffffffffffffffffffffffffffffffffffffffff1673ffffffffffffffffffffffffffffffffffffffff16815260200190815260200160002060008473ffffffffffffffffffffffffffffffffffffffff1673ffffffffffffffffffffffffffffffffffffffff16815260200190815260200160002060009054906101000a900460ff165b806138a657506002600083815260200190815260200160002060009054906101000a900473ffffffffffffffffffffffffffffffffffffffff1673ffffffffffffffffffffffffffffffffffffffff168373ffffffffffffffffffffffffffffffffffffffff16145b90509392505050565b600860008373ffffffffffffffffffffffffffffffffffffffff1673ffffffffffffffffffffffffffffffffffffffff168152602001908152602001600020805490508110613933576040517f08c379a000000000000000000000000000000000000000000000000000000000815260040161392a90615400565b60405180910390fd5b6000600860008473ffffffffffffffffffffffffffffffffffffffff1673ffffffffffffffffffffffffffffffffffffffff168152602001908152602001600020828154811061398657613985614d70565b5b906000526020600020906002020160000160009054906101000a900473ffffffffffffffffffffffffffffffffffffffff1690506000600a60008373ffffffffffffffffffffffffffffffffffffffff1673ffffffffffffffffffffffffffffffffffffffff16815260200190815260200160002060008573ffffffffffffffffffffffffffffffffffffffff1673ffffffffffffffffffffffffffffffffffffffff1681526020019081526020016000205403613abf57600a60008273ffffffffffffffffffffffffffffffffffffffff1673ffffffffffffffffffffffffffffffffffffffff16815260200190815260200160002060008473ffffffffffffffffffffffffffffffffffffffff1673ffffffffffffffffffffffffffffffffffffffff168152602001908152602001600020600090555b6000600860008573ffffffffffffffffffffffffffffffffffffffff1673ffffffffffffffffffffffffffffffffffffffff1681526020019081526020016000206001600860008773ffffffffffffffffffffffffffffffffffffffff1673ffffffffffffffffffffffffffffffffffffffff16815260200190815260200160002080549050613b4f91906150d8565b81548110613b6057613b5f614d70565b5b90600052602060002090600202016040518060400160405290816000820160009054906101000a900473ffffffffffffffffffffffffffffffffffffffff1673ffffffffffffffffffffffffffffffffffffffff1673ffffffffffffffffffffffffffffffffffffffff168152602001600182015481525050905080600860008673ffffffffffffffffffffffffffffffffffffffff1673ffffffffffffffffffffffffffffffffffffffff1681526020019081526020016000208481548110613c2d57613c2c614d70565b5b906000526020600020906002020160008201518160000160006101000a81548173ffffffffffffffffffffffffffffffffffffffff021916908373ffffffffffffffffffffffffffffffffffffffff16021790555060208201518160010155905050600860008573ffffffffffffffffffffffffffffffffffffffff1673ffffffffffffffffffffffffffffffffffffffff168152602001908152602001600020805480613cde57613cdd615420565b5b6001900381819060005260206000209060020201600080820160006101000a81549073ffffffffffffffffffffffffffffffffffffffff021916905560018201600090555050905550505050565b600080fd5b600080fd5b600073ffffffffffffffffffffffffffffffffffffffff82169050919050565b6000613d6182613d36565b9050919050565b613d7181613d56565b8114613d7c57600080fd5b50565b600081359050613d8e81613d68565b92915050565b600060208284031215613daa57613da9613d2c565b5b6000613db884828501613d7f565b91505092915050565b6000819050919050565b613dd481613dc1565b82525050565b6000602082019050613def6000830184613dcb565b92915050565b613dfe81613dc1565b8114613e0957600080fd5b50565b600081359050613e1b81613df5565b92915050565b600080600060608486031215613e3a57613e39613d2c565b5b6000613e4886828701613d7f565b9350506020613e5986828701613d7f565b9250506040613e6a86828701613e0c565b9150509250925092565b60007fffffffff0000000000000000000000000000000000000000000000000000000082169050919050565b613ea981613e74565b8114613eb457600080fd5b50565b600081359050613ec681613ea0565b92915050565b600060208284031215613ee257613ee1613d2c565b5b6000613ef084828501613eb7565b91505092915050565b60008115159050919050565b613f0e81613ef9565b82525050565b6000602082019050613f296000830184613f05565b92915050565b600060208284031215613f4557613f44613d2c565b5b6000613f5384828501613e0c565b91505092915050565b613f6581613d56565b82525050565b6000602082019050613f806000830184613f5c565b92915050565b60008060408385031215613f9d57613f9c613d2c565b5b6000613fab85828601613d7f565b9250506020613fbc85828601613e0c565b9150509250929050565b600081519050919050565b600082825260208201905092915050565b6000819050602082019050919050565b613ffb81613d56565b82525050565b600061400d8383613ff2565b60208301905092915050565b6000602082019050919050565b600061403182613fc6565b61403b8185613fd1565b935061404683613fe2565b8060005b8381101561407757815161405e8882614001565b975061406983614019565b92505060018101905061404a565b5085935050505092915050565b6000602082019050818103600083015261409e8184614026565b905092915050565b600080604083850312156140bd576140bc613d2c565b5b60006140cb85828601613d7f565b92505060206140dc85828601613d7f565b9150509250929050565b60006040820190506140fb6000830185613f5c565b6141086020830184613dcb565b9392505050565b61411881613ef9565b811461412357600080fd5b50565b6000813590506141358161410f565b92915050565b6000806040838503121561415257614151613d2c565b5b600061416085828601613d7f565b925050602061417185828601614126565b9150509250929050565b600080fd5b600080fd5b600080fd5b60008083601f8401126141a05761419f61417b565b5b8235905067ffffffffffffffff8111156141bd576141bc614180565b5b6020830191508360018202830111156141d9576141d8614185565b5b9250929050565b6000806000806000608086880312156141fc576141fb613d2c565b5b600061420a88828901613d7f565b955050602061421b88828901613d7f565b945050604061422c88828901613e0c565b935050606086013567ffffffffffffffff81111561424d5761424c613d31565b5b6142598882890161418a565b92509250509295509295909350565b6000806040838503121561427f5761427e613d2c565b5b600061428d85828601613e0c565b925050602061429e85828601613d7f565b9150509250929050565b600080604083850312156142bf576142be613d2c565b5b60006142cd85828601613e0c565b92505060206142de85828601613e0c565b9150509250929050565b600082825260208201905092915050565b7f66726f6d20213d206f776e657200000000000000000000000000000000000000600082015250565b600061432f600d836142e8565b915061433a826142f9565b602082019050919050565b6000602082019050818103600083015261435e81614322565b9050919050565b7f7472616e7366657220746f207a65726f20616464726573730000000000000000600082015250565b600061439b6018836142e8565b91506143a682614365565b602082019050919050565b600060208201905081810360008301526143ca8161438e565b9050919050565b7f4e487b7100000000000000000000000000000000000000000000000000000000600052601160045260246000fd5b600061440b82613dc1565b91506000820361441e5761441d6143d1565b5b600182039050919050565b600061443482613dc1565b91507fffffffffffffffffffffffffffffffffffffffffffffffffffffffffffffffff8203614466576144656143d1565b5b600182019050919050565b60008151905061448081613df5565b92915050565b60006020828403121561449c5761449b613d2c565b5b60006144aa84828501614471565b91505092915050565b7f496e76616c6964204552432d323020636f6e7472616374000000000000000000600082015250565b60006144e96017836142e8565b91506144f4826144b3565b602082019050919050565b60006020820190508181036000830152614518816144dc565b9050919050565b7f796f7520617265206e6f7420746865206f776e6572206f66207468697320706f60008201527f7274666f6c696f21000000000000000000000000000000000000000000000000602082015250565b600061457b6028836142e8565b91506145868261451f565b604082019050919050565b600060208201905081810360008301526145aa8161456e565b9050919050565b7f796f7520646f6e74206f776e20616e792073746f636b20696e2074686973206360008201527f6f6d70616e792021210000000000000000000000000000000000000000000000602082015250565b600061460d6029836142e8565b9150614618826145b1565b604082019050919050565b6000602082019050818103600083015261463c81614600565b9050919050565b7f746f6b656e20646f65736e277420657869737400000000000000000000000000600082015250565b60006146796013836142e8565b915061468482614643565b602082019050919050565b600060208201905081810360008301526146a88161466c565b9050919050565b7f6e6f7420617574686f72697a6564000000000000000000000000000000000000600082015250565b60006146e5600e836142e8565b91506146f0826146af565b602082019050919050565b60006020820190508181036000830152614714816146d8565b9050919050565b7f796f75206861766520616c726561647920616c7265616479206d696e7465642060008201527f796f757220706f7274666f6c696f202100000000000000000000000000000000602082015250565b60006147776030836142e8565b91506147828261471b565b604082019050919050565b600060208201905081810360008301526147a68161476a565b9050919050565b60006147b882613dc1565b91506147c383613dc1565b92508282019050808211156147db576147da6143d1565b5b92915050565b7f796f757220706f7274666f6c696f2068617320616c7265616479206265656e2060008201527f6c697374656420666f722073616c650000000000000000000000000000000000602082015250565b600061483d602f836142e8565b9150614848826147e1565b604082019050919050565b6000602082019050818103600083015261486c81614830565b9050919050565b600082825260208201905092915050565b50565b6000614894600083614873565b915061489f82614884565b600082019050919050565b60006080820190506148bf6000830186613f5c565b6148cc6020830185613f5c565b6148d96040830184613dcb565b81810360608301526148ea81614887565b9050949350505050565b60008151905061490381613ea0565b92915050565b60006020828403121561491f5761491e613d2c565b5b600061492d848285016148f4565b91505092915050565b7f756e7361666520726563697069656e7400000000000000000000000000000000600082015250565b600061496c6010836142e8565b915061497782614936565b602082019050919050565b6000602082019050818103600083015261499b8161495f565b9050919050565b7f736f727279202c206e6f7420656e6f7567682073746f636b206861732062656560008201527f6e206c697374656420757020666f722073616c65000000000000000000000000602082015250565b60006149fe6034836142e8565b9150614a09826149a2565b604082019050919050565b60006020820190508181036000830152614a2d816149f1565b9050919050565b6000614a3f82613dc1565b9150614a4a83613dc1565b9250828202614a5881613dc1565b91508282048414831517614a6f57614a6e6143d1565b5b5092915050565b7f4e6f2073746f636b7320666f756e6420666f72207468697320746f6b656e204960008201527f4400000000000000000000000000000000000000000000000000000000000000602082015250565b6000614ad26021836142e8565b9150614add82614a76565b604082019050919050565b60006020820190508181036000830152614b0181614ac5565b9050919050565b7f6f776e6572203d207a65726f2061646472657373000000000000000000000000600082015250565b6000614b3e6014836142e8565b9150614b4982614b08565b602082019050919050565b60006020820190508181036000830152614b6d81614b31565b9050919050565b7f796f752073656e74207a65726f20616464726573732100000000000000000000600082015250565b6000614baa6016836142e8565b9150614bb582614b74565b602082019050919050565b60006020820190508181036000830152614bd981614b9d565b9050919050565b7f74686520706f7274666f6c696f206861736e2774206265656e206c697374656460008201527f20666f722073616c652079657400000000000000000000000000000000000000602082015250565b6000614c3c602d836142e8565b9150614c4782614be0565b604082019050919050565b60006020820190508181036000830152614c6b81614c2f565b9050919050565b7f496e76616c696420706f7274666f6c696f206f776e6572000000000000000000600082015250565b6000614ca86017836142e8565b9150614cb382614c72565b602082019050919050565b60006020820190508181036000830152614cd781614c9b565b9050919050565b7f596f752063616e6e6f742062757920796f7572206f776e20706f7274666f6c6960008201527f6f00000000000000000000000000000000000000000000000000000000000000602082015250565b6000614d3a6021836142e8565b9150614d4582614cde565b604082019050919050565b60006020820190508181036000830152614d6981614d2d565b9050919050565b7f4e487b7100000000000000000000000000000000000000000000000000000000600052603260045260246000fd5b6000604082019050614db46000830185613f5c565b614dc16020830184613f5c565b9392505050565b7f496e73756666696369656e7420617574686f72697a6174696f6e000000000000600082015250565b6000614dfe601a836142e8565b9150614e0982614dc8565b602082019050919050565b60006020820190508181036000830152614e2d81614df1565b9050919050565b6000606082019050614e496000830186613f5c565b614e566020830185613f5c565b614e636040830184613dcb565b949350505050565b600081519050614e7a8161410f565b92915050565b600060208284031215614e9657614e95613d2c565b5b6000614ea484828501614e6b565b91505092915050565b82818337600083830152505050565b6000601f19601f8301169050919050565b6000614ed98385614873565b9350614ee6838584614ead565b614eef83614ebc565b840190509392505050565b6000608082019050614f0f6000830188613f5c565b614f1c6020830187613f5c565b614f296040830186613dcb565b8181036060830152614f3c818486614ecd565b90509695505050505050565b7f4e6f7420656e6f7567682073746f636b20617661696c61626c6520666f72207360008201527f616c650000000000000000000000000000000000000000000000000000000000602082015250565b6000614fa46023836142e8565b9150614faf82614f48565b604082019050919050565b60006020820190508181036000830152614fd381614f97565b9050919050565b7f596f7520617265206e6f7420746865206f776e6572206f66207468697320706f60008201527f7274666f6c696f21000000000000000000000000000000000000000000000000602082015250565b60006150366028836142e8565b915061504182614fda565b604082019050919050565b6000602082019050818103600083015261506581615029565b9050919050565b7f496e73756666696369656e74207061796d656e74000000000000000000000000600082015250565b60006150a26014836142e8565b91506150ad8261506c565b602082019050919050565b600060208201905081810360008301526150d181615095565b9050919050565b60006150e382613dc1565b91506150ee83613dc1565b9250828203905081811115615106576151056143d1565b5b92915050565b7f4e487b7100000000000000000000000000000000000000000000000000000000600052601260045260246000fd5b600061514682613dc1565b915061515183613dc1565b9250826151615761516061510c565b5b828204905092915050565b7f796f757220706f7274666f6c696f28746f6b656e6e49442920686173206e6f2060008201527f73746f636b207468697320636f6d70616e790000000000000000000000000000602082015250565b60006151c86032836142e8565b91506151d38261516c565b604082019050919050565b600060208201905081810360008301526151f7816151bb565b9050919050565b7f796f752063616e74206c697374206d6f72652073746f636b207468616e20796f60008201527f75206f776e20696e2074686520636f6d70616e79212100000000000000000000602082015250565b600061525a6036836142e8565b9150615265826151fe565b604082019050919050565b600060208201905081810360008301526152898161524d565b9050919050565b7f546f74616c206c697374656420616d6f756e7420776f756c642065786365656460008201527f206f776e65642062616c616e6365000000000000000000000000000000000000602082015250565b60006152ec602e836142e8565b91506152f782615290565b604082019050919050565b6000602082019050818103600083015261531b816152df565b9050919050565b7f6e6f7420656e6f7567682073746f636b20697320617574686f72697a6564207460008201527f6f20626520736f6c640000000000000000000000000000000000000000000000602082015250565b600061537e6029836142e8565b915061538982615322565b604082019050919050565b600060208201905081810360008301526153ad81615371565b9050919050565b7f496e76616c6964206c697374696e6720696e6465780000000000000000000000600082015250565b60006153ea6015836142e8565b91506153f5826153b4565b602082019050919050565b60006020820190508181036000830152615419816153dd565b9050919050565b7f4e487b7100000000000000000000000000000000000000000000000000000000600052603160045260246000fdfea264697066735822122061c9d5979bcf6fc4374bd39d54acd855c15090e10fa559bdb146b00d16a6afc364736f6c634300081c0033",
  "linkReferences": {},
  "deployedLinkReferences": {}
}